{
  "address": "0xc8588e59Ae9aE2Fa0C4cbeE01f5BE1fef5962109",
  "abi": [
    {
      "inputs": [
        {
          "internalType": "address",
          "name": "target",
          "type": "address"
        }
      ],
      "name": "AddressEmptyCode",
      "type": "error"
    },
    {
      "inputs": [
        {
          "internalType": "address",
          "name": "account",
          "type": "address"
        }
      ],
      "name": "AddressInsufficientBalance",
      "type": "error"
    },
    {
      "inputs": [
        {
          "internalType": "address",
          "name": "implementation",
          "type": "address"
        }
      ],
      "name": "ERC1967InvalidImplementation",
      "type": "error"
    },
    {
      "inputs": [],
      "name": "ERC1967NonPayable",
      "type": "error"
    },
    {
      "inputs": [],
      "name": "EnforcedPause",
      "type": "error"
    },
    {
      "inputs": [],
      "name": "ExpectedPause",
      "type": "error"
    },
    {
      "inputs": [],
      "name": "FailedInnerCall",
      "type": "error"
    },
    {
      "inputs": [],
      "name": "InvalidDelegate",
      "type": "error"
    },
    {
      "inputs": [],
      "name": "InvalidEndpointCall",
      "type": "error"
    },
    {
      "inputs": [],
      "name": "InvalidInitialization",
      "type": "error"
    },
    {
      "inputs": [],
      "name": "LzTokenUnavailable",
      "type": "error"
    },
    {
      "inputs": [
        {
          "internalType": "uint32",
          "name": "eid",
          "type": "uint32"
        }
      ],
      "name": "NoPeer",
      "type": "error"
    },
    {
      "inputs": [
        {
          "internalType": "uint256",
          "name": "msgValue",
          "type": "uint256"
        }
      ],
      "name": "NotEnoughNative",
      "type": "error"
    },
    {
      "inputs": [],
      "name": "NotInitializing",
      "type": "error"
    },
    {
      "inputs": [
        {
          "internalType": "address",
          "name": "addr",
          "type": "address"
        }
      ],
      "name": "OnlyEndpoint",
      "type": "error"
    },
    {
      "inputs": [
        {
          "internalType": "uint32",
          "name": "eid",
          "type": "uint32"
        },
        {
          "internalType": "bytes32",
          "name": "sender",
          "type": "bytes32"
        }
      ],
      "name": "OnlyPeer",
      "type": "error"
    },
    {
      "inputs": [
        {
          "internalType": "address",
          "name": "owner",
          "type": "address"
        }
      ],
      "name": "OwnableInvalidOwner",
      "type": "error"
    },
    {
      "inputs": [
        {
          "internalType": "address",
          "name": "account",
          "type": "address"
        }
      ],
      "name": "OwnableUnauthorizedAccount",
      "type": "error"
    },
    {
      "inputs": [
        {
          "internalType": "address",
          "name": "token",
          "type": "address"
        }
      ],
      "name": "SafeERC20FailedOperation",
      "type": "error"
    },
    {
      "inputs": [],
      "name": "UUPSUnauthorizedCallContext",
      "type": "error"
    },
    {
      "inputs": [
        {
          "internalType": "bytes32",
          "name": "slot",
          "type": "bytes32"
        }
      ],
      "name": "UUPSUnsupportedProxiableUUID",
      "type": "error"
    },
    {
      "anonymous": false,
      "inputs": [
        {
          "indexed": false,
          "internalType": "uint64",
          "name": "version",
          "type": "uint64"
        }
      ],
      "name": "Initialized",
      "type": "event"
    },
    {
      "anonymous": false,
      "inputs": [
        {
          "indexed": true,
          "internalType": "address",
          "name": "previousOwner",
          "type": "address"
        },
        {
          "indexed": true,
          "internalType": "address",
          "name": "newOwner",
          "type": "address"
        }
      ],
      "name": "OwnershipTransferred",
      "type": "event"
    },
    {
      "anonymous": false,
      "inputs": [
        {
          "indexed": false,
          "internalType": "address",
          "name": "account",
          "type": "address"
        }
      ],
      "name": "Paused",
      "type": "event"
    },
    {
      "anonymous": false,
      "inputs": [
        {
          "indexed": false,
          "internalType": "uint32",
          "name": "eid",
          "type": "uint32"
        },
        {
          "indexed": false,
          "internalType": "bytes32",
          "name": "peer",
          "type": "bytes32"
        }
      ],
      "name": "PeerSet",
      "type": "event"
    },
    {
      "anonymous": false,
      "inputs": [
        {
          "indexed": false,
          "internalType": "address",
          "name": "account",
          "type": "address"
        }
      ],
      "name": "Unpaused",
      "type": "event"
    },
    {
      "anonymous": false,
      "inputs": [
        {
          "indexed": true,
          "internalType": "address",
          "name": "implementation",
          "type": "address"
        }
      ],
      "name": "Upgraded",
      "type": "event"
    },
    {
      "inputs": [],
      "name": "SOL_CHAIN_ID",
      "outputs": [
        {
          "internalType": "uint256",
          "name": "",
          "type": "uint256"
        }
      ],
      "stateMutability": "view",
      "type": "function"
    },
    {
      "inputs": [],
      "name": "UPGRADE_INTERFACE_VERSION",
      "outputs": [
        {
          "internalType": "string",
          "name": "",
          "type": "string"
        }
      ],
      "stateMutability": "view",
      "type": "function"
    },
    {
      "inputs": [
        {
          "components": [
            {
              "internalType": "uint32",
              "name": "srcEid",
              "type": "uint32"
            },
            {
              "internalType": "bytes32",
              "name": "sender",
              "type": "bytes32"
            },
            {
              "internalType": "uint64",
              "name": "nonce",
              "type": "uint64"
            }
          ],
          "internalType": "struct Origin",
          "name": "origin",
          "type": "tuple"
        }
      ],
      "name": "allowInitializePath",
      "outputs": [
        {
          "internalType": "bool",
          "name": "",
          "type": "bool"
        }
      ],
      "stateMutability": "view",
      "type": "function"
    },
    {
      "inputs": [
        {
          "internalType": "uint256",
          "name": "",
          "type": "uint256"
        }
      ],
      "name": "chinIdToEid",
      "outputs": [
        {
          "internalType": "uint32",
          "name": "",
          "type": "uint32"
        }
      ],
      "stateMutability": "view",
      "type": "function"
    },
    {
      "inputs": [
        {
          "internalType": "bytes32",
          "name": "_solAddress",
          "type": "bytes32"
        },
        {
          "internalType": "string",
          "name": "brokerId",
          "type": "string"
        },
        {
          "internalType": "string",
          "name": "token",
          "type": "string"
        },
        {
          "internalType": "uint128",
          "name": "tokenAmount",
          "type": "uint128"
        }
      ],
      "name": "deposit",
      "outputs": [],
      "stateMutability": "nonpayable",
      "type": "function"
    },
    {
      "inputs": [],
      "name": "depositNonce",
      "outputs": [
        {
          "internalType": "uint64",
          "name": "",
          "type": "uint64"
        }
      ],
      "stateMutability": "view",
      "type": "function"
    },
    {
      "inputs": [
        {
          "internalType": "uint32",
          "name": "",
          "type": "uint32"
        }
      ],
      "name": "eidToChainId",
      "outputs": [
        {
          "internalType": "uint256",
          "name": "",
          "type": "uint256"
        }
      ],
      "stateMutability": "view",
      "type": "function"
    },
    {
      "inputs": [],
      "name": "endpoint",
      "outputs": [
        {
          "internalType": "contract ILayerZeroEndpointV2",
          "name": "",
          "type": "address"
        }
      ],
      "stateMutability": "view",
      "type": "function"
    },
    {
      "inputs": [
        {
          "internalType": "address",
          "name": "_lzEndpoint",
          "type": "address"
        },
        {
          "internalType": "address",
          "name": "_delegate",
          "type": "address"
        }
      ],
      "name": "initialize",
      "outputs": [],
      "stateMutability": "nonpayable",
      "type": "function"
    },
    {
      "inputs": [
        {
          "components": [
            {
              "internalType": "uint32",
              "name": "srcEid",
              "type": "uint32"
            },
            {
              "internalType": "bytes32",
              "name": "sender",
              "type": "bytes32"
            },
            {
              "internalType": "uint64",
              "name": "nonce",
              "type": "uint64"
            }
          ],
          "internalType": "struct Origin",
          "name": "",
          "type": "tuple"
        },
        {
          "internalType": "bytes",
          "name": "",
          "type": "bytes"
        },
        {
          "internalType": "address",
          "name": "_sender",
          "type": "address"
        }
      ],
      "name": "isComposeMsgSender",
      "outputs": [
        {
          "internalType": "bool",
          "name": "",
          "type": "bool"
        }
      ],
      "stateMutability": "view",
      "type": "function"
    },
    {
      "inputs": [],
      "name": "ledger",
      "outputs": [
        {
          "internalType": "contract ILedger",
          "name": "",
          "type": "address"
        }
      ],
      "stateMutability": "view",
      "type": "function"
    },
    {
      "inputs": [
        {
          "components": [
            {
              "internalType": "uint32",
              "name": "srcEid",
              "type": "uint32"
            },
            {
              "internalType": "bytes32",
              "name": "sender",
              "type": "bytes32"
            },
            {
              "internalType": "uint64",
              "name": "nonce",
              "type": "uint64"
            }
          ],
          "internalType": "struct Origin",
          "name": "_origin",
          "type": "tuple"
        },
        {
          "internalType": "bytes32",
          "name": "_guid",
          "type": "bytes32"
        },
        {
          "internalType": "bytes",
          "name": "_message",
          "type": "bytes"
        },
        {
          "internalType": "address",
          "name": "_executor",
          "type": "address"
        },
        {
          "internalType": "bytes",
          "name": "_extraData",
          "type": "bytes"
        }
      ],
      "name": "lzReceive",
      "outputs": [],
      "stateMutability": "payable",
      "type": "function"
    },
    {
      "inputs": [
        {
          "internalType": "uint32",
          "name": "",
          "type": "uint32"
        },
        {
          "internalType": "bytes32",
          "name": "",
          "type": "bytes32"
        }
      ],
      "name": "nextNonce",
      "outputs": [
        {
          "internalType": "uint64",
          "name": "nonce",
          "type": "uint64"
        }
      ],
      "stateMutability": "view",
      "type": "function"
    },
    {
      "inputs": [],
      "name": "oAppVersion",
      "outputs": [
        {
          "internalType": "uint64",
          "name": "senderVersion",
          "type": "uint64"
        },
        {
          "internalType": "uint64",
          "name": "receiverVersion",
          "type": "uint64"
        }
      ],
      "stateMutability": "pure",
      "type": "function"
    },
    {
      "inputs": [],
      "name": "owner",
      "outputs": [
        {
          "internalType": "address",
          "name": "",
          "type": "address"
        }
      ],
      "stateMutability": "view",
      "type": "function"
    },
    {
      "inputs": [],
      "name": "pause",
      "outputs": [],
      "stateMutability": "nonpayable",
      "type": "function"
    },
    {
      "inputs": [],
      "name": "paused",
      "outputs": [
        {
          "internalType": "bool",
          "name": "",
          "type": "bool"
        }
      ],
      "stateMutability": "view",
      "type": "function"
    },
    {
      "inputs": [
        {
          "internalType": "uint32",
          "name": "eid",
          "type": "uint32"
        }
      ],
      "name": "peers",
      "outputs": [
        {
          "internalType": "bytes32",
          "name": "peer",
          "type": "bytes32"
        }
      ],
      "stateMutability": "view",
      "type": "function"
    },
    {
      "inputs": [],
      "name": "proxiableUUID",
      "outputs": [
        {
          "internalType": "bytes32",
          "name": "",
          "type": "bytes32"
        }
      ],
      "stateMutability": "view",
      "type": "function"
    },
    {
      "inputs": [
        {
          "internalType": "uint32",
          "name": "_dstEid",
          "type": "uint32"
        },
        {
          "internalType": "string",
          "name": "_message",
          "type": "string"
        },
        {
          "internalType": "bytes",
          "name": "_options",
          "type": "bytes"
        },
        {
          "internalType": "bool",
          "name": "_payInLzToken",
          "type": "bool"
        }
      ],
      "name": "quote",
      "outputs": [
        {
          "components": [
            {
              "internalType": "uint256",
              "name": "nativeFee",
              "type": "uint256"
            },
            {
              "internalType": "uint256",
              "name": "lzTokenFee",
              "type": "uint256"
            }
          ],
          "internalType": "struct MessagingFee",
          "name": "fee",
          "type": "tuple"
        }
      ],
      "stateMutability": "view",
      "type": "function"
    },
    {
      "inputs": [],
      "name": "renounceOwnership",
      "outputs": [],
      "stateMutability": "nonpayable",
      "type": "function"
    },
    {
      "inputs": [
        {
          "internalType": "uint32",
          "name": "_dstEid",
          "type": "uint32"
        },
        {
          "internalType": "string",
          "name": "_message",
          "type": "string"
        },
        {
          "internalType": "bytes",
          "name": "_options",
          "type": "bytes"
        }
      ],
      "name": "send",
      "outputs": [
        {
          "components": [
            {
              "internalType": "bytes32",
              "name": "guid",
              "type": "bytes32"
            },
            {
              "internalType": "uint64",
              "name": "nonce",
              "type": "uint64"
            },
            {
              "components": [
                {
                  "internalType": "uint256",
                  "name": "nativeFee",
                  "type": "uint256"
                },
                {
                  "internalType": "uint256",
                  "name": "lzTokenFee",
                  "type": "uint256"
                }
              ],
              "internalType": "struct MessagingFee",
              "name": "fee",
              "type": "tuple"
            }
          ],
          "internalType": "struct MessagingReceipt",
          "name": "receipt",
          "type": "tuple"
        }
      ],
      "stateMutability": "payable",
      "type": "function"
    },
    {
      "inputs": [
        {
          "internalType": "address",
          "name": "_delegate",
          "type": "address"
        }
      ],
      "name": "setDelegate",
      "outputs": [],
      "stateMutability": "nonpayable",
      "type": "function"
    },
    {
      "inputs": [
        {
          "internalType": "uint256[]",
          "name": "_chainIds",
          "type": "uint256[]"
        },
        {
          "internalType": "uint32[]",
          "name": "_eids",
          "type": "uint32[]"
        }
      ],
      "name": "setEids",
      "outputs": [],
      "stateMutability": "nonpayable",
      "type": "function"
    },
    {
      "inputs": [
        {
          "internalType": "address",
          "name": "_ledger",
          "type": "address"
        }
      ],
      "name": "setLedger",
      "outputs": [],
      "stateMutability": "nonpayable",
      "type": "function"
    },
    {
      "inputs": [
        {
          "internalType": "uint32",
          "name": "_eid",
          "type": "uint32"
        },
        {
          "internalType": "bytes32",
          "name": "_peer",
          "type": "bytes32"
        }
      ],
      "name": "setPeer",
      "outputs": [],
      "stateMutability": "nonpayable",
      "type": "function"
    },
    {
      "inputs": [
        {
          "internalType": "uint32[]",
          "name": "_eids",
          "type": "uint32[]"
        },
        {
          "internalType": "bytes32[]",
          "name": "_peers",
          "type": "bytes32[]"
        }
      ],
      "name": "setPeers",
      "outputs": [],
      "stateMutability": "nonpayable",
      "type": "function"
    },
    {
      "inputs": [
        {
          "internalType": "address",
          "name": "newOwner",
          "type": "address"
        }
      ],
      "name": "transferOwnership",
      "outputs": [],
      "stateMutability": "nonpayable",
      "type": "function"
    },
    {
      "inputs": [
        {
          "internalType": "address",
          "name": "",
          "type": "address"
        }
      ],
      "name": "trustCaller",
      "outputs": [
        {
          "internalType": "bool",
          "name": "",
          "type": "bool"
        }
      ],
      "stateMutability": "view",
      "type": "function"
    },
    {
      "inputs": [],
      "name": "unpause",
      "outputs": [],
      "stateMutability": "nonpayable",
      "type": "function"
    },
    {
      "inputs": [
        {
          "internalType": "address",
          "name": "newImplementation",
          "type": "address"
        },
        {
          "internalType": "bytes",
          "name": "data",
          "type": "bytes"
        }
      ],
      "name": "upgradeToAndCall",
      "outputs": [],
      "stateMutability": "payable",
      "type": "function"
    },
    {
      "inputs": [
        {
          "components": [
            {
              "internalType": "uint128",
              "name": "tokenAmount",
              "type": "uint128"
            },
            {
              "internalType": "uint128",
              "name": "fee",
              "type": "uint128"
            },
            {
              "internalType": "uint256",
              "name": "chainId",
              "type": "uint256"
            },
            {
              "internalType": "bytes32",
              "name": "accountId",
              "type": "bytes32"
            },
            {
              "internalType": "bytes32",
              "name": "r",
              "type": "bytes32"
            },
            {
              "internalType": "bytes32",
              "name": "s",
              "type": "bytes32"
            },
            {
              "internalType": "bytes32",
              "name": "sender",
              "type": "bytes32"
            },
            {
              "internalType": "bytes32",
              "name": "receiver",
              "type": "bytes32"
            },
            {
              "internalType": "uint64",
              "name": "withdrawNonce",
              "type": "uint64"
            },
            {
              "internalType": "uint64",
              "name": "timestamp",
              "type": "uint64"
            },
            {
              "internalType": "string",
              "name": "brokerId",
              "type": "string"
            },
            {
              "internalType": "string",
              "name": "tokenSymbol",
              "type": "string"
            }
          ],
          "internalType": "struct WithdrawDataSol",
          "name": "_withdrawData",
          "type": "tuple"
        }
      ],
      "name": "withdraw",
      "outputs": [],
      "stateMutability": "nonpayable",
      "type": "function"
    }
  ],
  "transactionHash": "0x811c9a5a72b683a282c62af40e59c4f696aaa926b95779e63fa1c2199721fce9",
  "args": [],
  "numDeployments": 1,
  "solcInputHash": "9e333f4517c07b964414e53b8f4daf38",
  "bytecode": "0x60a0604052306080523480156200001557600080fd5b506200002062000026565b620000da565b7ff0c57e16840df040f15088dc2f81fe391c3923bec73e23a9662efc9c229c6a00805468010000000000000000900460ff1615620000775760405163f92ee8a960e01b815260040160405180910390fd5b80546001600160401b0390811614620000d75780546001600160401b0319166001600160401b0390811782556040519081527fc7f505b2f371ae2175ee4913f4499e1f2633a7b5936321eed1cdaeb6115181d29060200160405180910390a15b50565b60805161280362000104600039600081816113620152818161138b01526114d101526128036000f3fe6080604052600436106101e35760003560e01c80638456cb5911610102578063d2fe419711610095578063f2fde38b11610064578063f2fde38b1461061d578063f77e5dd31461063d578063fd782a761461066a578063ff7bd03d1461068257600080fd5b8063d2fe419714610596578063de35f5cb146105b6578063e0539e58146105dd578063e437f7bd146105fd57600080fd5b8063ad3cb1cc116100d1578063ad3cb1cc146104db578063bb0b6a5314610519578063ca5eb5e114610546578063cf041eeb1461056657600080fd5b80638456cb591461043c5780638b42babd146104515780638da5cb5b1461047e5780638fd0abec146104bb57600080fd5b80634f1ef2861161017a5780635e280f11116101495780635e280f11146103a0578063715018a6146103c05780637d25a05e146103d557806382413eac1461040d57600080fd5b80634f1ef2861461030157806352d1902d1461031457806356397c35146103375780635c975abb1461036f57600080fd5b80633772df58116101b65780633772df58146102645780633f4ba83a1461028457806340ba4a7514610299578063485cc955146102e157600080fd5b806313137d65146101e857806317442b70146101fd5780633246887d146102245780633400288b14610244575b600080fd5b6101fb6101f6366004611e5b565b6106a2565b005b34801561020957600080fd5b50604080516001815260026020820152015b60405180910390f35b34801561023057600080fd5b506101fb61023f366004611efa565b610735565b34801561025057600080fd5b506101fb61025f366004611f30565b6107f8565b34801561027057600080fd5b506101fb61027f366004611f9e565b61080e565b34801561029057600080fd5b506101fb6108c7565b3480156102a557600080fd5b506102cc6102b4366004612009565b60ca6020526000908152604090205463ffffffff1681565b60405163ffffffff909116815260200161021b565b3480156102ed57600080fd5b506101fb6102fc366004612022565b6108d9565b6101fb61030f3660046120fd565b6109e8565b34801561032057600080fd5b50610329610a03565b60405190815260200161021b565b34801561034357600080fd5b5060cd54610357906001600160a01b031681565b6040516001600160a01b03909116815260200161021b565b34801561037b57600080fd5b506000805160206127ae8339815191525460ff165b604051901515815260200161021b565b3480156103ac57600080fd5b50600054610357906001600160a01b031681565b3480156103cc57600080fd5b506101fb610a20565b3480156103e157600080fd5b506103f56103f0366004611f30565b610a32565b6040516001600160401b03909116815260200161021b565b34801561041957600080fd5b5061039061042836600461214c565b6001600160a01b0381163014949350505050565b34801561044857600080fd5b506101fb610a3b565b34801561045d57600080fd5b5061032961046c3660046121b2565b60cb6020526000908152604090205481565b34801561048a57600080fd5b507f9016d09d72d40fdae2fd8ceac6b6234c7706214fd39c1cd1e609a0528c199300546001600160a01b0316610357565b3480156104c757600080fd5b506101fb6104d63660046121cd565b610a4b565b3480156104e757600080fd5b5061050c604051806040016040528060058152602001640352e302e360dc1b81525081565b60405161021b9190612258565b34801561052557600080fd5b506103296105343660046121b2565b60016020526000908152604090205481565b34801561055257600080fd5b506101fb610561366004611efa565b610c5b565b34801561057257600080fd5b50610390610581366004611efa565b60cc6020526000908152604090205460ff1681565b3480156105a257600080fd5b506101fb6105b1366004611f9e565b610cbe565b3480156105c257600080fd5b5060cd546103f590600160a01b90046001600160401b031681565b6105f06105eb36600461226b565b610ede565b60405161021b91906122d5565b34801561060957600080fd5b506101fb61061836600461232e565b610f67565b34801561062957600080fd5b506101fb610638366004611efa565b611128565b34801561064957600080fd5b5061065d6106583660046123c4565b611166565b60405161021b919061243f565b34801561067657600080fd5b506103296335d1347681565b34801561068e57600080fd5b5061039061069d366004612456565b6111aa565b6000546001600160a01b031633146106d4576040516391ac5e4f60e01b81523360048201526024015b60405180910390fd5b602087018035906106ee906106e9908a6121b2565b6111e0565b1461072c5761070060208801886121b2565b60405163309afaf360e21b815263ffffffff9091166004820152602088013560248201526044016106cb565b50505050505050565b61073d61121c565b6001600160a01b0381166107825760405162461bcd60e51b815260206004820152600c60248201526b5a65726f206164647265737360a01b60448201526064016106cb565b60cd546001600160a01b03908116908216036107d65760405162461bcd60e51b815260206004820152601360248201527253616d65206c6564676572206164647265737360681b60448201526064016106cb565b60cd80546001600160a01b0319166001600160a01b0392909216919091179055565b61080061121c565b61080a8282611277565b5050565b61081661121c565b8281146108655760405162461bcd60e51b815260206004820152601e60248201527f4f417070436f72653a20496e76616c696420696e707574206c656e677468000060448201526064016106cb565b60005b838110156108c0576108b885858381811061088557610885612472565b905060200201602081019061089a91906121b2565b8484848181106108ac576108ac612472565b90506020020135611277565b600101610868565b5050505050565b6108cf61121c565b6108d76112cc565b565b7ff0c57e16840df040f15088dc2f81fe391c3923bec73e23a9662efc9c229c6a008054600160401b810460ff1615906001600160401b031660008115801561091e5750825b90506000826001600160401b0316600114801561093a5750303b155b905081158015610948575080155b156109665760405163f92ee8a960e01b815260040160405180910390fd5b845467ffffffffffffffff19166001178555831561099057845460ff60401b1916600160401b1785555b61099a878761132c565b831561072c57845460ff60401b19168555604051600181527fc7f505b2f371ae2175ee4913f4499e1f2633a7b5936321eed1cdaeb6115181d29060200160405180910390a150505050505050565b6109f0611357565b6109f9826113fc565b61080a8282611404565b6000610a0d6114c6565b5060008051602061278e83398151915290565b610a2861121c565b6108d7600061150f565b60005b92915050565b610a4361121c565b6108d7611580565b60cd546001600160a01b03163314610ab05760405162461bcd60e51b815260206004820152602260248201527f4f6e6c79206c65646765722063616e2063616c6c20746869732066756e63746960448201526137b760f11b60648201526084016106cb565b6000604051806101200160405280610b118460c0013585806101400190610ad79190612488565b8080601f0160208091040260200160405190810160405280939291908181526020018383808284376000920191909152506115c992505050565b815260c0840135602082015260e08401356040820152606001610b75610b3b610140860186612488565b8080601f01602080910402602001604051908101604052809392919081815260200183838082843760009201919091525061160592505050565b8152602001610b8b610b3b610160860186612488565b8152602090810190610b9f908501856124ce565b6001600160801b03168152602001836020016020810190610bc091906124ce565b6001600160801b03168152604080850135602083015201610be9610120850161010086016124fe565b6001600160401b0316905260cd5460405163c82e87d960e01b81529192506001600160a01b03169063c82e87d990610c2590849060040161251b565b600060405180830381600087803b158015610c3f57600080fd5b505af1158015610c53573d6000803e3d6000fd5b505050505050565b610c6361121c565b60005460405163ca5eb5e160e01b81526001600160a01b0383811660048301529091169063ca5eb5e190602401600060405180830381600087803b158015610caa57600080fd5b505af11580156108c0573d6000803e3d6000fd5b610cc661121c565b828114610d075760405162461bcd60e51b815260206004820152600f60248201526e098cadccee8d040dad2e6dac2e8c6d608b1b60448201526064016106cb565b82610d425760405162461bcd60e51b815260206004820152600b60248201526a115b5c1d1e481a5b9c1d5d60aa1b60448201526064016106cb565b60005b838110156108c0576000858583818110610d6157610d61612472565b9050602002013511610da45760405162461bcd60e51b815260206004820152600c60248201526b16995c9bc818da185a5b9a5960a21b60448201526064016106cb565b6000838383818110610db857610db8612472565b9050602002016020810190610dcd91906121b2565b63ffffffff1611610e0b5760405162461bcd60e51b815260206004820152600860248201526716995c9bc8195a5960c21b60448201526064016106cb565b828282818110610e1d57610e1d612472565b9050602002016020810190610e3291906121b2565b60ca6000878785818110610e4857610e48612472565b90506020020135815260200190815260200160002060006101000a81548163ffffffff021916908363ffffffff160217905550848482818110610e8d57610e8d612472565b9050602002013560cb6000858585818110610eaa57610eaa612472565b9050602002016020810190610ebf91906121b2565b63ffffffff168152602081019190915260400160002055600101610d45565b610ee6611d9f565b600084604051602001610ef99190612258565b60408051601f198184030181526020601f87018190048102840181019092528583529250610f5d9188918491908890889081908401838280828437600092018290525060408051808201909152348152602081019190915292503391506116359050565b9695505050505050565b60006040518060e00160405280610fb48989898080601f0160208091040260200160405190810160405280939291908181526020018383808284376000920191909152506115c992505050565b8152602001610ff888888080601f01602080910402602001604051908101604052809392919081815260200183838082843760009201919091525061160592505050565b815260200188815260200161104286868080601f01602080910402602001604051908101604052809392919081815260200183838082843760009201919091525061160592505050565b81526020016335d134768152602001836001600160801b03168152602001611068611728565b6001600160401b0390811690915260cd5460408051637275235560e11b81528451600482015260208501516024820152908401516044820152606084015160648201526080840151608482015260a08401516001600160801b031660a482015260c084015190921660c48301529192506001600160a01b039091169063e4ea46aa9060e401600060405180830381600087803b15801561110757600080fd5b505af115801561111b573d6000803e3d6000fd5b5050505050505050505050565b61113061121c565b6001600160a01b03811661115a57604051631e4fbdf760e01b8152600060048201526024016106cb565b6111638161150f565b50565b604080518082019091526000808252602082015260008460405160200161118d9190612258565b6040516020818303038152906040529050610f5d86828686611773565b60006020820180359060019083906111c290866121b2565b63ffffffff1681526020810191909152604001600020541492915050565b63ffffffff811660009081526001602052604081205480610a355760405163f6ff4fb760e01b815263ffffffff841660048201526024016106cb565b3361124e7f9016d09d72d40fdae2fd8ceac6b6234c7706214fd39c1cd1e609a0528c199300546001600160a01b031690565b6001600160a01b0316146108d75760405163118cdaa760e01b81523360048201526024016106cb565b63ffffffff8216600081815260016020908152604091829020849055815192835282018390527f238399d427b947898edb290f5ff0f9109849b1c3ba196a42e35f00c50a54b98b910160405180910390a15050565b6112d461183b565b6000805160206127ae833981519152805460ff191681557f5db9ee0a495bf2e6ff9c91a7834c1ba4fdd244a5e8aa4e537bd38aeae4b073aa335b6040516001600160a01b03909116815260200160405180910390a150565b61133461186b565b61133e82826118b4565b61134661192d565b61134e611935565b61080a81611945565b306001600160a01b037f00000000000000000000000000000000000000000000000000000000000000001614806113de57507f00000000000000000000000000000000000000000000000000000000000000006001600160a01b03166113d260008051602061278e833981519152546001600160a01b031690565b6001600160a01b031614155b156108d75760405163703e46dd60e11b815260040160405180910390fd5b61116361121c565b816001600160a01b03166352d1902d6040518163ffffffff1660e01b8152600401602060405180830381865afa92505050801561145e575060408051601f3d908101601f1916820190925261145b918101906125a0565b60015b61148657604051634c9c8ce360e01b81526001600160a01b03831660048201526024016106cb565b60008051602061278e83398151915281146114b757604051632a87526960e21b8152600481018290526024016106cb565b6114c18383611956565b505050565b306001600160a01b037f000000000000000000000000000000000000000000000000000000000000000016146108d75760405163703e46dd60e11b815260040160405180910390fd5b7f9016d09d72d40fdae2fd8ceac6b6234c7706214fd39c1cd1e609a0528c19930080546001600160a01b031981166001600160a01b03848116918217845560405192169182907f8be0079c531659141344cd1fd0a4f28419497f9722a3daafe3b4186f6b6457e090600090a3505050565b6115886119ac565b6000805160206127ae833981519152805460ff191660011781557f62e78cea01bee320cd4e420270b5ea74000d11b0c9f74754ebdbfc544b05a2583361130e565b6000826115d583611605565b60408051602081019390935282015260600160405160208183030381529060405280519060200120905092915050565b60008160405160200161161891906125b9565b604051602081830303815290604052805190602001209050919050565b61163d611d9f565b600061164c84600001516119dd565b602085015190915015611666576116668460200151611a05565b6000546040805160a0810190915263ffffffff891681526001600160a01b0390911690632637a4509083906020810161169e8c6111e0565b81526020018a815260200189815260200160008960200151111515815250866040518463ffffffff1660e01b81526004016116da9291906125d5565b60806040518083038185885af11580156116f8573d6000803e3d6000fd5b50505050506040513d601f19601f8201168201806040525081019061171d919061269c565b979650505050505050565b600060cd601481819054906101000a90046001600160401b031661174b90612703565b91906101000a8154816001600160401b0302191690836001600160401b031602179055905090565b60408051808201909152600080825260208201526000546040805160a0810190915263ffffffff871681526001600160a01b039091169063ddc28c5890602081016117bd896111e0565b8152602001878152602001868152602001851515815250306040518363ffffffff1660e01b81526004016117f29291906125d5565b6040805180830381865afa15801561180e573d6000803e3d6000fd5b505050506040513d601f19601f820116820180604052508101906118329190612737565b95945050505050565b6000805160206127ae8339815191525460ff166108d757604051638dfc202b60e01b815260040160405180910390fd5b7ff0c57e16840df040f15088dc2f81fe391c3923bec73e23a9662efc9c229c6a0054600160401b900460ff166108d757604051631afcd79f60e31b815260040160405180910390fd5b6118bc61186b565b600080546001600160a01b0319166001600160a01b038481169190911790915581166118fb57604051632d618d8160e21b815260040160405180910390fd5b60005460405163ca5eb5e160e01b81526001600160a01b0383811660048301529091169063ca5eb5e190602401610c25565b6108d761186b565b61193d61186b565b6108d7611ac2565b61194d61186b565b61116381611ae3565b61195f82611aeb565b6040516001600160a01b038316907fbc7cd75a20ee27fd9adebab32041f755214dbc6bffa90cc0225b39da2e5c2d3b90600090a28051156119a4576114c18282611b50565b61080a611bbd565b6000805160206127ae8339815191525460ff16156108d75760405163d93c066560e01b815260040160405180910390fd5b6000813414611a01576040516304fb820960e51b81523460048201526024016106cb565b5090565b60008060009054906101000a90046001600160a01b03166001600160a01b031663e4fe1d946040518163ffffffff1660e01b8152600401602060405180830381865afa158015611a59573d6000803e3d6000fd5b505050506040513d601f19601f82011682018060405250810190611a7d9190612753565b90506001600160a01b038116611aa6576040516329b99a9560e11b815260040160405180910390fd5b60005461080a906001600160a01b038381169133911685611bdc565b611aca61186b565b6000805160206127ae833981519152805460ff19169055565b61113061186b565b806001600160a01b03163b600003611b2157604051634c9c8ce360e01b81526001600160a01b03821660048201526024016106cb565b60008051602061278e83398151915280546001600160a01b0319166001600160a01b0392909216919091179055565b6060600080846001600160a01b031684604051611b6d91906125b9565b600060405180830381855af49150503d8060008114611ba8576040519150601f19603f3d011682016040523d82523d6000602084013e611bad565b606091505b5091509150611832858383611c3c565b34156108d75760405163b398979f60e01b815260040160405180910390fd5b604080516001600160a01b0385811660248301528416604482015260648082018490528251808303909101815260849091019091526020810180516001600160e01b03166323b872dd60e01b179052611c36908590611c9b565b50505050565b606082611c5157611c4c82611cfe565b611c94565b8151158015611c6857506001600160a01b0384163b155b15611c9157604051639996b31560e01b81526001600160a01b03851660048201526024016106cb565b50805b9392505050565b6000611cb06001600160a01b03841683611d27565b90508051600014158015611cd5575080806020019051810190611cd39190612770565b155b156114c157604051635274afe760e01b81526001600160a01b03841660048201526024016106cb565b805115611d0e5780518082602001fd5b604051630a12f52160e11b815260040160405180910390fd5b6060611c948383600084600080856001600160a01b03168486604051611d4d91906125b9565b60006040518083038185875af1925050503d8060008114611d8a576040519150601f19603f3d011682016040523d82523d6000602084013e611d8f565b606091505b5091509150610f5d868383611c3c565b60405180606001604052806000801916815260200160006001600160401b03168152602001611de1604051806040016040528060008152602001600081525090565b905290565b600060608284031215611df857600080fd5b50919050565b60008083601f840112611e1057600080fd5b5081356001600160401b03811115611e2757600080fd5b602083019150836020828501011115611e3f57600080fd5b9250929050565b6001600160a01b038116811461116357600080fd5b600080600080600080600060e0888a031215611e7657600080fd5b611e808989611de6565b96506060880135955060808801356001600160401b0380821115611ea357600080fd5b611eaf8b838c01611dfe565b909750955060a08a01359150611ec482611e46565b90935060c08901359080821115611eda57600080fd5b50611ee78a828b01611dfe565b989b979a50959850939692959293505050565b600060208284031215611f0c57600080fd5b8135611c9481611e46565b803563ffffffff81168114611f2b57600080fd5b919050565b60008060408385031215611f4357600080fd5b611f4c83611f17565b946020939093013593505050565b60008083601f840112611f6c57600080fd5b5081356001600160401b03811115611f8357600080fd5b6020830191508360208260051b8501011115611e3f57600080fd5b60008060008060408587031215611fb457600080fd5b84356001600160401b0380821115611fcb57600080fd5b611fd788838901611f5a565b90965094506020870135915080821115611ff057600080fd5b50611ffd87828801611f5a565b95989497509550505050565b60006020828403121561201b57600080fd5b5035919050565b6000806040838503121561203557600080fd5b823561204081611e46565b9150602083013561205081611e46565b809150509250929050565b634e487b7160e01b600052604160045260246000fd5b600082601f83011261208257600080fd5b81356001600160401b038082111561209c5761209c61205b565b604051601f8301601f19908116603f011681019082821181831017156120c4576120c461205b565b816040528381528660208588010111156120dd57600080fd5b836020870160208301376000602085830101528094505050505092915050565b6000806040838503121561211057600080fd5b823561211b81611e46565b915060208301356001600160401b0381111561213657600080fd5b61214285828601612071565b9150509250929050565b60008060008060a0858703121561216257600080fd5b61216c8686611de6565b935060608501356001600160401b0381111561218757600080fd5b61219387828801611dfe565b90945092505060808501356121a781611e46565b939692955090935050565b6000602082840312156121c457600080fd5b611c9482611f17565b6000602082840312156121df57600080fd5b81356001600160401b038111156121f557600080fd5b82016101808185031215611c9457600080fd5b60005b8381101561222357818101518382015260200161220b565b50506000910152565b60008151808452612244816020860160208601612208565b601f01601f19169290920160200192915050565b602081526000611c94602083018461222c565b6000806000806060858703121561228157600080fd5b61228a85611f17565b935060208501356001600160401b03808211156122a657600080fd5b6122b288838901612071565b945060408701359150808211156122c857600080fd5b50611ffd87828801611dfe565b6000608082019050825182526001600160401b0360208401511660208301526040830151612310604084018280518252602090810151910152565b5092915050565b80356001600160801b0381168114611f2b57600080fd5b6000806000806000806080878903121561234757600080fd5b8635955060208701356001600160401b038082111561236557600080fd5b6123718a838b01611dfe565b9097509550604089013591508082111561238a57600080fd5b5061239789828a01611dfe565b90945092506123aa905060608801612317565b90509295509295509295565b801515811461116357600080fd5b600080600080608085870312156123da57600080fd5b6123e385611f17565b935060208501356001600160401b03808211156123ff57600080fd5b61240b88838901612071565b9450604087013591508082111561242157600080fd5b5061242e87828801612071565b92505060608501356121a7816123b6565b815181526020808301519082015260408101610a35565b60006060828403121561246857600080fd5b611c948383611de6565b634e487b7160e01b600052603260045260246000fd5b6000808335601e1984360301811261249f57600080fd5b8301803591506001600160401b038211156124b957600080fd5b602001915036819003821315611e3f57600080fd5b6000602082840312156124e057600080fd5b611c9482612317565b6001600160401b038116811461116357600080fd5b60006020828403121561251057600080fd5b8135611c94816124e9565b600061012082019050825182526020830151602083015260408301516040830152606083015160608301526080830151608083015260a08301516001600160801b0380821660a08501528060c08601511660c0850152505060e083015160e083015261010080840151612598828501826001600160401b03169052565b505092915050565b6000602082840312156125b257600080fd5b5051919050565b600082516125cb818460208701612208565b9190910192915050565b6040815263ffffffff8351166040820152602083015160608201526000604084015160a0608084015261260b60e084018261222c565b90506060850151603f198483030160a0850152612628828261222c565b60809690960151151560c08501525050506001600160a01b039190911660209091015290565b60006040828403121561266057600080fd5b604051604081018181106001600160401b03821117156126825761268261205b565b604052825181526020928301519281019290925250919050565b6000608082840312156126ae57600080fd5b604051606081018181106001600160401b03821117156126d0576126d061205b565b6040528251815260208301516126e5816124e9565b60208201526126f7846040850161264e565b60408201529392505050565b60006001600160401b0380831681810361272d57634e487b7160e01b600052601160045260246000fd5b6001019392505050565b60006040828403121561274957600080fd5b611c94838361264e565b60006020828403121561276557600080fd5b8151611c9481611e46565b60006020828403121561278257600080fd5b8151611c94816123b656fe360894a13ba1a3210667c828492db98dca3e2076cc3735a920a3ca505d382bbccd5ed15c6e187e77e9aee88184c21f4f2182ab5827cb3b7e07fbedcd63f03300a2646970667358221220d05e30d5b2dd37dac129487b8dc9db534508c6b2ef8f5198bd3b1c6a6b6223b564736f6c63430008160033",
  "devdoc": {
    "errors": {
      "AddressEmptyCode(address)": [
        {
          "details": "There's no code at `target` (it is not a contract)."
        }
      ],
      "AddressInsufficientBalance(address)": [
        {
          "details": "The ETH balance of the account is not enough to perform the operation."
        }
      ],
      "ERC1967InvalidImplementation(address)": [
        {
          "details": "The `implementation` of the proxy is invalid."
        }
      ],
      "ERC1967NonPayable()": [
        {
          "details": "An upgrade function sees `msg.value > 0` that may be lost."
        }
      ],
      "EnforcedPause()": [
        {
          "details": "The operation failed because the contract is paused."
        }
      ],
      "ExpectedPause()": [
        {
          "details": "The operation failed because the contract is not paused."
        }
      ],
      "FailedInnerCall()": [
        {
          "details": "A call to an address target failed. The target may have reverted."
        }
      ],
      "InvalidInitialization()": [
        {
          "details": "The contract is already initialized."
        }
      ],
      "NotInitializing()": [
        {
          "details": "The contract is not initializing."
        }
      ],
      "OwnableInvalidOwner(address)": [
        {
          "details": "The owner is not a valid owner account. (eg. `address(0)`)"
        }
      ],
      "OwnableUnauthorizedAccount(address)": [
        {
          "details": "The caller account is not authorized to perform an operation."
        }
      ],
      "SafeERC20FailedOperation(address)": [
        {
          "details": "An operation with an ERC20 token failed."
        }
      ],
      "UUPSUnauthorizedCallContext()": [
        {
          "details": "The call is from an unauthorized context."
        }
      ],
      "UUPSUnsupportedProxiableUUID(bytes32)": [
        {
          "details": "The storage `slot` is unsupported as a UUID."
        }
      ]
    },
    "events": {
      "Initialized(uint64)": {
        "details": "Triggered when the contract has been initialized or reinitialized."
      },
      "Paused(address)": {
        "details": "Emitted when the pause is triggered by `account`."
      },
      "Unpaused(address)": {
        "details": "Emitted when the pause is lifted by `account`."
      },
      "Upgraded(address)": {
        "details": "Emitted when the implementation is upgraded."
      }
    },
    "kind": "dev",
    "methods": {
      "allowInitializePath((uint32,bytes32,uint64))": {
        "details": "This indicates to the endpoint that the OApp has enabled msgs for this particular path to be received.This defaults to assuming if a peer has been set, its initialized. Can be overridden by the OApp if there is other logic to determine this.",
        "params": {
          "origin": "The origin information containing the source endpoint and sender address."
        },
        "returns": {
          "_0": "Whether the path has been initialized."
        }
      },
      "initialize(address,address)": {
        "details": "Initialize the OrderOFT contract and set the ordered nonce flag",
        "params": {
          "_delegate": "The delegate address of this OApp on the endpoint",
          "_lzEndpoint": "The LayerZero endpoint address"
        }
      },
      "isComposeMsgSender((uint32,bytes32,uint64),bytes,address)": {
        "details": "_origin The origin information containing the source endpoint and sender address.  - srcEid: The source chain endpoint ID.  - sender: The sender address on the src chain.  - nonce: The nonce of the message._message The lzReceive payload.Applications can optionally choose to implement separate composeMsg senders that are NOT the bridging layer.The default sender IS the OAppReceiver implementer.",
        "params": {
          "_sender": "The sender address."
        },
        "returns": {
          "_0": "isSender Is a valid sender."
        }
      },
      "lzReceive((uint32,bytes32,uint64),bytes32,bytes,address,bytes)": {
        "details": "Entry point for receiving messages or packets from the endpoint.Entry point for receiving msg/packet from the LayerZero endpoint.",
        "params": {
          "_executor": "The address of the executor for the received message.",
          "_extraData": "Additional arbitrary data provided by the corresponding executor.",
          "_guid": "The unique identifier for the received LayerZero message.",
          "_message": "The payload of the received message.",
          "_origin": "The origin information containing the source endpoint and sender address.  - srcEid: The source chain endpoint ID.  - sender: The sender address on the src chain.  - nonce: The nonce of the message."
        }
      },
      "nextNonce(uint32,bytes32)": {
        "details": "_srcEid The source endpoint ID._sender The sender address.The path nonce starts from 1. If 0 is returned it means that there is NO nonce ordered enforcement.Is required by the off-chain executor to determine the OApp expects msg execution is ordered.This is also enforced by the OApp.By default this is NOT enabled. ie. nextNonce is hardcoded to return 0.",
        "returns": {
          "nonce": "The next nonce."
        }
      },
      "oAppVersion()": {
        "returns": {
          "receiverVersion": "The version of the OAppReceiver.sol implementation.",
          "senderVersion": "The version of the OAppSender.sol implementation."
        }
      },
      "owner()": {
        "details": "Returns the address of the current owner."
      },
      "paused()": {
        "details": "Returns true if the contract is paused, and false otherwise."
      },
      "proxiableUUID()": {
        "details": "Implementation of the ERC1822 {proxiableUUID} function. This returns the storage slot used by the implementation. It is used to validate the implementation's compatibility when performing an upgrade. IMPORTANT: A proxy pointing at a proxiable contract should not be considered proxiable itself, because this risks bricking a proxy that upgrades to it, by delegating to itself until out of gas. Thus it is critical that this function revert if invoked through a proxy. This is guaranteed by the `notDelegated` modifier."
      },
      "quote(uint32,string,bytes,bool)": {
        "params": {
          "_dstEid": "Destination chain's endpoint ID.",
          "_message": "The message.",
          "_options": "Message execution options (e.g., for sending gas to destination).",
          "_payInLzToken": "Whether to return fee in ZRO token."
        },
        "returns": {
          "fee": "A `MessagingFee` struct containing the calculated gas fee in either the native token or ZRO token."
        }
      },
      "renounceOwnership()": {
        "details": "Leaves the contract without owner. It will not be possible to call `onlyOwner` functions. Can only be called by the current owner. NOTE: Renouncing ownership will leave the contract without an owner, thereby disabling any functionality that is only available to the owner."
      },
      "send(uint32,string,bytes)": {
        "details": "Encodes the message as bytes and sends it using the `_lzSend` internal function.",
        "params": {
          "_dstEid": "The endpoint ID of the destination chain.",
          "_message": "The message string to be sent.",
          "_options": "Additional options for message execution."
        },
        "returns": {
          "receipt": "A `MessagingReceipt` struct containing details of the message sent."
        }
      },
      "setDelegate(address)": {
        "details": "Only the owner/admin of the OApp can call this function.Provides the ability for a delegate to set configs, on behalf of the OApp, directly on the Endpoint contract.",
        "params": {
          "_delegate": "The address of the delegate to be set."
        }
      },
      "setPeer(uint32,bytes32)": {
        "details": "Only the owner/admin of the OApp can call this function.Indicates that the peer is trusted to send LayerZero messages to this OApp.Set this to bytes32(0) to remove the peer address.Peer is a bytes32 to accommodate non-evm chains.",
        "params": {
          "_eid": "The endpoint ID.",
          "_peer": "The address of the peer to be associated with the corresponding endpoint."
        }
      },
      "transferOwnership(address)": {
        "details": "Transfers ownership of the contract to a new account (`newOwner`). Can only be called by the current owner."
      },
      "upgradeToAndCall(address,bytes)": {
        "custom:oz-upgrades-unsafe-allow-reachable": "delegatecall",
        "details": "Upgrade the implementation of the proxy to `newImplementation`, and subsequently execute the function call encoded in `data`. Calls {_authorizeUpgrade}. Emits an {Upgraded} event."
      }
    },
    "version": 1
  },
  "userdoc": {
    "kind": "user",
    "methods": {
      "allowInitializePath((uint32,bytes32,uint64))": {
        "notice": "Checks if the path initialization is allowed based on the provided origin."
      },
      "endpoint()": {
        "notice": "Retrieves the LayerZero endpoint associated with the OApp."
      },
      "isComposeMsgSender((uint32,bytes32,uint64),bytes,address)": {
        "notice": "Indicates whether an address is an approved composeMsg sender to the Endpoint."
      },
      "nextNonce(uint32,bytes32)": {
        "notice": "Retrieves the next nonce for a given source endpoint and sender address."
      },
      "oAppVersion()": {
        "notice": "Retrieves the OApp version information."
      },
      "peers(uint32)": {
        "notice": "Retrieves the peer (OApp) associated with a corresponding endpoint."
      },
      "quote(uint32,string,bytes,bool)": {
        "notice": "Quotes the gas needed to pay for the full omnichain transaction in native gas or ZRO token."
      },
      "send(uint32,string,bytes)": {
        "notice": "Sends a message from the source chain to a destination chain."
      },
      "setDelegate(address)": {
        "notice": "Sets the delegate address for the OApp."
      },
      "setPeer(uint32,bytes32)": {
        "notice": "Sets the peer address (OApp instance) for a corresponding endpoint."
      }
    },
    "version": 1
  },
  "storageLayout": {
    "storage": [
      {
        "astId": 8315,
        "contract": "contracts/mocks/SolCCMock.sol:SolCCMock",
        "label": "endpoint",
        "offset": 0,
        "slot": "0",
        "type": "t_contract(ILayerZeroEndpointV2)1293"
      },
      {
        "astId": 8319,
        "contract": "contracts/mocks/SolCCMock.sol:SolCCMock",
        "label": "peers",
        "offset": 0,
        "slot": "1",
        "type": "t_mapping(t_uint32,t_bytes32)"
      },
      {
        "astId": 8323,
        "contract": "contracts/mocks/SolCCMock.sol:SolCCMock",
        "label": "__gap",
        "offset": 0,
        "slot": "2",
        "type": "t_array(t_uint256)50_storage"
      },
      {
        "astId": 8666,
        "contract": "contracts/mocks/SolCCMock.sol:SolCCMock",
        "label": "__gap",
        "offset": 0,
        "slot": "52",
        "type": "t_array(t_uint256)50_storage"
      },
      {
        "astId": 8502,
        "contract": "contracts/mocks/SolCCMock.sol:SolCCMock",
        "label": "__gap",
        "offset": 0,
        "slot": "102",
        "type": "t_array(t_uint256)50_storage"
      },
      {
        "astId": 8853,
        "contract": "contracts/mocks/SolCCMock.sol:SolCCMock",
        "label": "__gap",
        "offset": 0,
        "slot": "152",
        "type": "t_array(t_uint256)50_storage"
      },
      {
        "astId": 7975,
        "contract": "contracts/mocks/SolCCMock.sol:SolCCMock",
        "label": "chinIdToEid",
        "offset": 0,
        "slot": "202",
        "type": "t_mapping(t_uint256,t_uint32)"
      },
      {
        "astId": 7979,
        "contract": "contracts/mocks/SolCCMock.sol:SolCCMock",
        "label": "eidToChainId",
        "offset": 0,
        "slot": "203",
        "type": "t_mapping(t_uint32,t_uint256)"
      },
      {
        "astId": 7983,
        "contract": "contracts/mocks/SolCCMock.sol:SolCCMock",
        "label": "trustCaller",
        "offset": 0,
        "slot": "204",
        "type": "t_mapping(t_address,t_bool)"
      },
      {
        "astId": 7986,
        "contract": "contracts/mocks/SolCCMock.sol:SolCCMock",
        "label": "ledger",
        "offset": 0,
        "slot": "205",
        "type": "t_contract(ILedger)8287"
      },
      {
        "astId": 12878,
        "contract": "contracts/mocks/SolCCMock.sol:SolCCMock",
        "label": "depositNonce",
        "offset": 20,
        "slot": "205",
        "type": "t_uint64"
      }
    ],
    "types": {
      "t_address": {
        "encoding": "inplace",
        "label": "address",
        "numberOfBytes": "20"
      },
      "t_array(t_uint256)50_storage": {
        "base": "t_uint256",
        "encoding": "inplace",
        "label": "uint256[50]",
        "numberOfBytes": "1600"
      },
      "t_bool": {
        "encoding": "inplace",
        "label": "bool",
        "numberOfBytes": "1"
      },
      "t_bytes32": {
        "encoding": "inplace",
        "label": "bytes32",
        "numberOfBytes": "32"
      },
      "t_contract(ILayerZeroEndpointV2)1293": {
        "encoding": "inplace",
        "label": "contract ILayerZeroEndpointV2",
        "numberOfBytes": "20"
      },
      "t_contract(ILedger)8287": {
        "encoding": "inplace",
        "label": "contract ILedger",
        "numberOfBytes": "20"
      },
      "t_mapping(t_address,t_bool)": {
        "encoding": "mapping",
        "key": "t_address",
        "label": "mapping(address => bool)",
        "numberOfBytes": "32",
        "value": "t_bool"
      },
      "t_mapping(t_uint256,t_uint32)": {
        "encoding": "mapping",
        "key": "t_uint256",
        "label": "mapping(uint256 => uint32)",
        "numberOfBytes": "32",
        "value": "t_uint32"
      },
      "t_mapping(t_uint32,t_bytes32)": {
        "encoding": "mapping",
        "key": "t_uint32",
        "label": "mapping(uint32 => bytes32)",
        "numberOfBytes": "32",
        "value": "t_bytes32"
      },
      "t_mapping(t_uint32,t_uint256)": {
        "encoding": "mapping",
        "key": "t_uint32",
        "label": "mapping(uint32 => uint256)",
        "numberOfBytes": "32",
        "value": "t_uint256"
      },
      "t_uint256": {
        "encoding": "inplace",
        "label": "uint256",
        "numberOfBytes": "32"
      },
      "t_uint32": {
        "encoding": "inplace",
        "label": "uint32",
        "numberOfBytes": "4"
      },
      "t_uint64": {
        "encoding": "inplace",
        "label": "uint64",
        "numberOfBytes": "8"
      }
    }
  }
}