{
  "address": "0x302c579F7030970771559Ce8361C7547E7C6077E",
  "abi": [
    {
      "inputs": [],
      "stateMutability": "nonpayable",
      "type": "constructor"
    },
    {
      "inputs": [
        {
          "internalType": "address",
          "name": "target",
          "type": "address"
        }
      ],
      "name": "AddressEmptyCode",
      "type": "error"
    },
    {
      "inputs": [
        {
          "internalType": "address",
          "name": "account",
          "type": "address"
        }
      ],
      "name": "AddressInsufficientBalance",
      "type": "error"
    },
    {
      "inputs": [
        {
          "internalType": "address",
          "name": "implementation",
          "type": "address"
        }
      ],
      "name": "ERC1967InvalidImplementation",
      "type": "error"
    },
    {
      "inputs": [],
      "name": "ERC1967NonPayable",
      "type": "error"
    },
    {
      "inputs": [],
      "name": "EnforcedPause",
      "type": "error"
    },
    {
      "inputs": [],
      "name": "ExpectedPause",
      "type": "error"
    },
    {
      "inputs": [],
      "name": "FailedInnerCall",
      "type": "error"
    },
    {
      "inputs": [],
      "name": "InvalidDelegate",
      "type": "error"
    },
    {
      "inputs": [],
      "name": "InvalidEndpointCall",
      "type": "error"
    },
    {
      "inputs": [],
      "name": "InvalidInitialization",
      "type": "error"
    },
    {
      "inputs": [
        {
          "internalType": "uint16",
          "name": "optionType",
          "type": "uint16"
        }
      ],
      "name": "InvalidOptionType",
      "type": "error"
    },
    {
      "inputs": [],
      "name": "LzTokenUnavailable",
      "type": "error"
    },
    {
      "inputs": [
        {
          "internalType": "uint32",
          "name": "eid",
          "type": "uint32"
        }
      ],
      "name": "NoPeer",
      "type": "error"
    },
    {
      "inputs": [
        {
          "internalType": "uint256",
          "name": "msgValue",
          "type": "uint256"
        }
      ],
      "name": "NotEnoughNative",
      "type": "error"
    },
    {
      "inputs": [],
      "name": "NotInitializing",
      "type": "error"
    },
    {
      "inputs": [
        {
          "internalType": "address",
          "name": "addr",
          "type": "address"
        }
      ],
      "name": "OnlyEndpoint",
      "type": "error"
    },
    {
      "inputs": [
        {
          "internalType": "uint32",
          "name": "eid",
          "type": "uint32"
        },
        {
          "internalType": "bytes32",
          "name": "sender",
          "type": "bytes32"
        }
      ],
      "name": "OnlyPeer",
      "type": "error"
    },
    {
      "inputs": [
        {
          "internalType": "address",
          "name": "owner",
          "type": "address"
        }
      ],
      "name": "OwnableInvalidOwner",
      "type": "error"
    },
    {
      "inputs": [
        {
          "internalType": "address",
          "name": "account",
          "type": "address"
        }
      ],
      "name": "OwnableUnauthorizedAccount",
      "type": "error"
    },
    {
      "inputs": [
        {
          "internalType": "uint8",
          "name": "bits",
          "type": "uint8"
        },
        {
          "internalType": "uint256",
          "name": "value",
          "type": "uint256"
        }
      ],
      "name": "SafeCastOverflowedUintDowncast",
      "type": "error"
    },
    {
      "inputs": [
        {
          "internalType": "address",
          "name": "token",
          "type": "address"
        }
      ],
      "name": "SafeERC20FailedOperation",
      "type": "error"
    },
    {
      "inputs": [],
      "name": "UUPSUnauthorizedCallContext",
      "type": "error"
    },
    {
      "inputs": [
        {
          "internalType": "bytes32",
          "name": "slot",
          "type": "bytes32"
        }
      ],
      "name": "UUPSUnsupportedProxiableUUID",
      "type": "error"
    },
    {
      "anonymous": false,
      "inputs": [
        {
          "indexed": false,
          "internalType": "uint64",
          "name": "version",
          "type": "uint64"
        }
      ],
      "name": "Initialized",
      "type": "event"
    },
    {
      "anonymous": false,
      "inputs": [
        {
          "indexed": true,
          "internalType": "address",
          "name": "previousOwner",
          "type": "address"
        },
        {
          "indexed": true,
          "internalType": "address",
          "name": "newOwner",
          "type": "address"
        }
      ],
      "name": "OwnershipTransferred",
      "type": "event"
    },
    {
      "anonymous": false,
      "inputs": [
        {
          "indexed": false,
          "internalType": "address",
          "name": "account",
          "type": "address"
        }
      ],
      "name": "Paused",
      "type": "event"
    },
    {
      "anonymous": false,
      "inputs": [
        {
          "indexed": false,
          "internalType": "uint32",
          "name": "eid",
          "type": "uint32"
        },
        {
          "indexed": false,
          "internalType": "bytes32",
          "name": "peer",
          "type": "bytes32"
        }
      ],
      "name": "PeerSet",
      "type": "event"
    },
    {
      "anonymous": false,
      "inputs": [
        {
          "indexed": false,
          "internalType": "bool",
          "name": "orderDelivery",
          "type": "bool"
        },
        {
          "indexed": false,
          "internalType": "uint64",
          "name": "inboundNonce",
          "type": "uint64"
        }
      ],
      "name": "SetOrderDelivery",
      "type": "event"
    },
    {
      "anonymous": false,
      "inputs": [
        {
          "indexed": false,
          "internalType": "uint8",
          "name": "msgType",
          "type": "uint8"
        }
      ],
      "name": "UnkonwnMessageType",
      "type": "event"
    },
    {
      "anonymous": false,
      "inputs": [
        {
          "indexed": false,
          "internalType": "address",
          "name": "account",
          "type": "address"
        }
      ],
      "name": "Unpaused",
      "type": "event"
    },
    {
      "anonymous": false,
      "inputs": [
        {
          "indexed": true,
          "internalType": "address",
          "name": "implementation",
          "type": "address"
        }
      ],
      "name": "Upgraded",
      "type": "event"
    },
    {
      "stateMutability": "payable",
      "type": "fallback"
    },
    {
      "inputs": [],
      "name": "UPGRADE_INTERFACE_VERSION",
      "outputs": [
        {
          "internalType": "string",
          "name": "",
          "type": "string"
        }
      ],
      "stateMutability": "view",
      "type": "function"
    },
    {
      "inputs": [
        {
          "components": [
            {
              "internalType": "uint32",
              "name": "srcEid",
              "type": "uint32"
            },
            {
              "internalType": "bytes32",
              "name": "sender",
              "type": "bytes32"
            },
            {
              "internalType": "uint64",
              "name": "nonce",
              "type": "uint64"
            }
          ],
          "internalType": "struct Origin",
          "name": "origin",
          "type": "tuple"
        }
      ],
      "name": "allowInitializePath",
      "outputs": [
        {
          "internalType": "bool",
          "name": "",
          "type": "bool"
        }
      ],
      "stateMutability": "view",
      "type": "function"
    },
    {
      "inputs": [],
      "name": "endpoint",
      "outputs": [
        {
          "internalType": "contract ILayerZeroEndpointV2",
          "name": "",
          "type": "address"
        }
      ],
      "stateMutability": "view",
      "type": "function"
    },
    {
      "inputs": [],
      "name": "inboundNonce",
      "outputs": [
        {
          "internalType": "uint64",
          "name": "",
          "type": "uint64"
        }
      ],
      "stateMutability": "view",
      "type": "function"
    },
    {
      "inputs": [
        {
          "internalType": "address",
          "name": "_lzEndpoint",
          "type": "address"
        },
        {
          "internalType": "address",
          "name": "_delegate",
          "type": "address"
        },
        {
          "internalType": "uint32",
          "name": "_solEid",
          "type": "uint32"
        }
      ],
      "name": "initialize",
      "outputs": [],
      "stateMutability": "nonpayable",
      "type": "function"
    },
    {
      "inputs": [
        {
          "components": [
            {
              "internalType": "uint32",
              "name": "srcEid",
              "type": "uint32"
            },
            {
              "internalType": "bytes32",
              "name": "sender",
              "type": "bytes32"
            },
            {
              "internalType": "uint64",
              "name": "nonce",
              "type": "uint64"
            }
          ],
          "internalType": "struct Origin",
          "name": "",
          "type": "tuple"
        },
        {
          "internalType": "bytes",
          "name": "",
          "type": "bytes"
        },
        {
          "internalType": "address",
          "name": "_sender",
          "type": "address"
        }
      ],
      "name": "isComposeMsgSender",
      "outputs": [
        {
          "internalType": "bool",
          "name": "",
          "type": "bool"
        }
      ],
      "stateMutability": "view",
      "type": "function"
    },
    {
      "inputs": [],
      "name": "ledger",
      "outputs": [
        {
          "internalType": "contract ILedger",
          "name": "",
          "type": "address"
        }
      ],
      "stateMutability": "view",
      "type": "function"
    },
    {
      "inputs": [
        {
          "components": [
            {
              "internalType": "uint32",
              "name": "srcEid",
              "type": "uint32"
            },
            {
              "internalType": "bytes32",
              "name": "sender",
              "type": "bytes32"
            },
            {
              "internalType": "uint64",
              "name": "nonce",
              "type": "uint64"
            }
          ],
          "internalType": "struct Origin",
          "name": "_origin",
          "type": "tuple"
        },
        {
          "internalType": "bytes32",
          "name": "_guid",
          "type": "bytes32"
        },
        {
          "internalType": "bytes",
          "name": "_message",
          "type": "bytes"
        },
        {
          "internalType": "address",
          "name": "_executor",
          "type": "address"
        },
        {
          "internalType": "bytes",
          "name": "_extraData",
          "type": "bytes"
        }
      ],
      "name": "lzReceive",
      "outputs": [],
      "stateMutability": "payable",
      "type": "function"
    },
    {
      "inputs": [
        {
          "internalType": "uint8",
          "name": "",
          "type": "uint8"
        }
      ],
      "name": "msgOptions",
      "outputs": [
        {
          "internalType": "uint128",
          "name": "gas",
          "type": "uint128"
        },
        {
          "internalType": "uint128",
          "name": "value",
          "type": "uint128"
        }
      ],
      "stateMutability": "view",
      "type": "function"
    },
    {
      "inputs": [
        {
          "internalType": "uint32",
          "name": "",
          "type": "uint32"
        },
        {
          "internalType": "bytes32",
          "name": "",
          "type": "bytes32"
        }
      ],
      "name": "nextNonce",
      "outputs": [
        {
          "internalType": "uint64",
          "name": "nonce",
          "type": "uint64"
        }
      ],
      "stateMutability": "view",
      "type": "function"
    },
    {
      "inputs": [],
      "name": "oAppVersion",
      "outputs": [
        {
          "internalType": "uint64",
          "name": "senderVersion",
          "type": "uint64"
        },
        {
          "internalType": "uint64",
          "name": "receiverVersion",
          "type": "uint64"
        }
      ],
      "stateMutability": "pure",
      "type": "function"
    },
    {
      "inputs": [],
      "name": "orderDelivery",
      "outputs": [
        {
          "internalType": "bool",
          "name": "",
          "type": "bool"
        }
      ],
      "stateMutability": "view",
      "type": "function"
    },
    {
      "inputs": [],
      "name": "owner",
      "outputs": [
        {
          "internalType": "address",
          "name": "",
          "type": "address"
        }
      ],
      "stateMutability": "view",
      "type": "function"
    },
    {
      "inputs": [],
      "name": "pause",
      "outputs": [],
      "stateMutability": "nonpayable",
      "type": "function"
    },
    {
      "inputs": [],
      "name": "paused",
      "outputs": [
        {
          "internalType": "bool",
          "name": "",
          "type": "bool"
        }
      ],
      "stateMutability": "view",
      "type": "function"
    },
    {
      "inputs": [
        {
          "internalType": "uint32",
          "name": "eid",
          "type": "uint32"
        }
      ],
      "name": "peers",
      "outputs": [
        {
          "internalType": "bytes32",
          "name": "peer",
          "type": "bytes32"
        }
      ],
      "stateMutability": "view",
      "type": "function"
    },
    {
      "inputs": [],
      "name": "proxiableUUID",
      "outputs": [
        {
          "internalType": "bytes32",
          "name": "",
          "type": "bytes32"
        }
      ],
      "stateMutability": "view",
      "type": "function"
    },
    {
      "inputs": [],
      "name": "renounceOwnership",
      "outputs": [],
      "stateMutability": "nonpayable",
      "type": "function"
    },
    {
      "inputs": [
        {
          "internalType": "address",
          "name": "_delegate",
          "type": "address"
        }
      ],
      "name": "setDelegate",
      "outputs": [],
      "stateMutability": "nonpayable",
      "type": "function"
    },
    {
      "inputs": [
        {
          "internalType": "address",
          "name": "_ledger",
          "type": "address"
        }
      ],
      "name": "setLedger",
      "outputs": [],
      "stateMutability": "nonpayable",
      "type": "function"
    },
    {
      "inputs": [
        {
          "internalType": "uint8",
          "name": "_msgType",
          "type": "uint8"
        },
        {
          "internalType": "uint128",
          "name": "_gas",
          "type": "uint128"
        },
        {
          "internalType": "uint128",
          "name": "_value",
          "type": "uint128"
        }
      ],
      "name": "setOptions",
      "outputs": [],
      "stateMutability": "nonpayable",
      "type": "function"
    },
    {
      "inputs": [
        {
          "internalType": "bool",
          "name": "_orderDelivery",
          "type": "bool"
        },
        {
          "internalType": "uint64",
          "name": "_inboundNonce",
          "type": "uint64"
        }
      ],
      "name": "setOrderDelivery",
      "outputs": [],
      "stateMutability": "nonpayable",
      "type": "function"
    },
    {
      "inputs": [
        {
          "internalType": "uint32",
          "name": "_eid",
          "type": "uint32"
        },
        {
          "internalType": "bytes32",
          "name": "_peer",
          "type": "bytes32"
        }
      ],
      "name": "setPeer",
      "outputs": [],
      "stateMutability": "nonpayable",
      "type": "function"
    },
    {
      "inputs": [
        {
          "internalType": "uint32[]",
          "name": "_eids",
          "type": "uint32[]"
        },
        {
          "internalType": "bytes32[]",
          "name": "_peers",
          "type": "bytes32[]"
        }
      ],
      "name": "setPeers",
      "outputs": [],
      "stateMutability": "nonpayable",
      "type": "function"
    },
    {
      "inputs": [
        {
          "internalType": "uint32",
          "name": "_solEid",
          "type": "uint32"
        }
      ],
      "name": "setSolEid",
      "outputs": [],
      "stateMutability": "nonpayable",
      "type": "function"
    },
    {
      "inputs": [],
      "name": "solEid",
      "outputs": [
        {
          "internalType": "uint32",
          "name": "",
          "type": "uint32"
        }
      ],
      "stateMutability": "view",
      "type": "function"
    },
    {
      "inputs": [
        {
          "internalType": "address",
          "name": "newOwner",
          "type": "address"
        }
      ],
      "name": "transferOwnership",
      "outputs": [],
      "stateMutability": "nonpayable",
      "type": "function"
    },
    {
      "inputs": [],
      "name": "unpause",
      "outputs": [],
      "stateMutability": "nonpayable",
      "type": "function"
    },
    {
      "inputs": [
        {
          "internalType": "address",
          "name": "newImplementation",
          "type": "address"
        },
        {
          "internalType": "bytes",
          "name": "data",
          "type": "bytes"
        }
      ],
      "name": "upgradeToAndCall",
      "outputs": [],
      "stateMutability": "payable",
      "type": "function"
    },
    {
      "inputs": [
        {
          "components": [
            {
              "internalType": "uint128",
              "name": "tokenAmount",
              "type": "uint128"
            },
            {
              "internalType": "uint128",
              "name": "fee",
              "type": "uint128"
            },
            {
              "internalType": "uint256",
              "name": "chainId",
              "type": "uint256"
            },
            {
              "internalType": "bytes32",
              "name": "accountId",
              "type": "bytes32"
            },
            {
              "internalType": "bytes32",
              "name": "r",
              "type": "bytes32"
            },
            {
              "internalType": "bytes32",
              "name": "s",
              "type": "bytes32"
            },
            {
              "internalType": "bytes32",
              "name": "sender",
              "type": "bytes32"
            },
            {
              "internalType": "bytes32",
              "name": "receiver",
              "type": "bytes32"
            },
            {
              "internalType": "uint64",
              "name": "withdrawNonce",
              "type": "uint64"
            },
            {
              "internalType": "uint64",
              "name": "timestamp",
              "type": "uint64"
            },
            {
              "internalType": "string",
              "name": "brokerId",
              "type": "string"
            },
            {
              "internalType": "string",
              "name": "tokenSymbol",
              "type": "string"
            }
          ],
          "internalType": "struct WithdrawDataSol",
          "name": "_withdrawData",
          "type": "tuple"
        }
      ],
      "name": "withdraw",
      "outputs": [],
      "stateMutability": "nonpayable",
      "type": "function"
    },
    {
      "stateMutability": "payable",
      "type": "receive"
    }
  ],
  "args": [],
  "numDeployments": 1,
  "solcInputHash": "4c9eda2e6cef9c0029299f7c56bd67ff",
  "bytecode": "0x60a0604052306080523480156200001557600080fd5b506200002062000026565b620000da565b7ff0c57e16840df040f15088dc2f81fe391c3923bec73e23a9662efc9c229c6a00805468010000000000000000900460ff1615620000775760405163f92ee8a960e01b815260040160405180910390fd5b80546001600160401b0390811614620000d75780546001600160401b0319166001600160401b0390811782556040519081527fc7f505b2f371ae2175ee4913f4499e1f2633a7b5936321eed1cdaeb6115181d29060200160405180910390a15b50565b608051612a3462000104600039600081816112610152818161128a01526113d00152612a346000f3fe6080604052600436106101b95760003560e01c80635e280f11116100eb5780638fd0abec1161008f578063ca5eb5e111610061578063ca5eb5e1146105c4578063f2fde38b146105e4578063f4fb5d7814610604578063ff7bd03d1461062557005b80638fd0abec146104d8578063ad3cb1cc146104f8578063bb0b6a5314610536578063c85570a61461056357005b80637d25a05e116100c85780637d25a05e1461043757806382413eac146104575780638456cb59146104865780638da5cb5b1461049b57005b80635e280f11146103e25780636ecf2b2214610402578063715018a61461042257005b80633246887d1161015d5780634f1ef2861161012f5780634f1ef2861461034357806352d1902d1461035657806356397c35146103795780635c975abb146103b157005b80633246887d146102ce5780633400288b146102ee5780633772df581461030e5780633f4ba83a1461032e57005b806313137d651161019657806313137d6514610239578063132747c01461024c578063165d8ba51461028c57806317442b70146102ac57005b806303adc0d6146101c257806307817696146101e25780630a8cd0cf1461020257005b366101c057005b005b3480156101ce57600080fd5b506101c06101dd36600461203c565b610645565b3480156101ee57600080fd5b506101c06101fd366004612099565b610697565b34801561020e57600080fd5b5060cc5461021f9063ffffffff1681565b60405163ffffffff90911681526020015b60405180910390f35b6101c0610247366004612129565b610701565b34801561025857600080fd5b5060cc546102749064010000000090046001600160401b031681565b6040516001600160401b039091168152602001610230565b34801561029857600080fd5b506101c06102a73660046121eb565b61079e565b3480156102b857600080fd5b5060408051600181526002602082015201610230565b3480156102da57600080fd5b506101c06102e9366004612224565b610831565b3480156102fa57600080fd5b506101c0610309366004612241565b6108f4565b34801561031a57600080fd5b506101c06103293660046122af565b61090a565b34801561033a57600080fd5b506101c06109c3565b6101c0610351366004612360565b6109d5565b34801561036257600080fd5b5061036b6109f0565b604051908152602001610230565b34801561038557600080fd5b5060ca54610399906001600160a01b031681565b6040516001600160a01b039091168152602001610230565b3480156103bd57600080fd5b506000805160206129df8339815191525460ff165b6040519015158152602001610230565b3480156103ee57600080fd5b50600054610399906001600160a01b031681565b34801561040e57600080fd5b506101c061041d366004612407565b610a0d565b34801561042e57600080fd5b506101c0610b83565b34801561044357600080fd5b50610274610452366004612241565b610b95565b34801561046357600080fd5b506103d261047236600461244e565b6001600160a01b0381163014949350505050565b34801561049257600080fd5b506101c0610bbe565b3480156104a757600080fd5b507f9016d09d72d40fdae2fd8ceac6b6234c7706214fd39c1cd1e609a0528c199300546001600160a01b0316610399565b3480156104e457600080fd5b506101c06104f33660046124b4565b610bce565b34801561050457600080fd5b50610529604051806040016040528060058152602001640352e302e360dc1b81525081565b604051610230919061253f565b34801561054257600080fd5b5061036b610551366004612099565b60016020526000908152604090205481565b34801561056f57600080fd5b506105a461057e366004612552565b60cb602052600090815260409020546001600160801b0380821691600160801b90041682565b604080516001600160801b03938416815292909116602083015201610230565b3480156105d057600080fd5b506101c06105df366004612224565b610e41565b3480156105f057600080fd5b506101c06105ff366004612224565b610ea4565b34801561061057600080fd5b5060cc546103d290600160601b900460ff1681565b34801561063157600080fd5b506103d261064036600461256d565b610ee2565b61064d610f18565b6040805180820182526001600160801b039384168152918316602080840191825260ff909516600090815260cb9095529320905192518216600160801b0292909116919091179055565b61069f610f18565b8063ffffffff166000036106e55760405162461bcd60e51b815260206004820152600860248201526716995c9bc8195a5960c21b60448201526064015b60405180910390fd5b60cc805463ffffffff191663ffffffff92909216919091179055565b6000546001600160a01b0316331461072e576040516391ac5e4f60e01b81523360048201526024016106dc565b6020870180359061074890610743908a612099565b610f73565b146107865761075a6020880188612099565b60405163309afaf360e21b815263ffffffff9091166004820152602088013560248201526044016106dc565b61079587878787878787610fb5565b50505050505050565b6107a6610f18565b60cc80546cffffffffffffffffff000000001916600160601b8415159081026bffffffffffffffff000000001916919091176401000000006001600160401b038516908102919091179092556040805191825260208201929092527fcf41e472280394778c57f0d739b41e17a8f8da558241ad40da42b55785a9d42191015b60405180910390a15050565b610839610f18565b6001600160a01b03811661087e5760405162461bcd60e51b815260206004820152600c60248201526b5a65726f206164647265737360a01b60448201526064016106dc565b60ca546001600160a01b03908116908216036108d25760405162461bcd60e51b815260206004820152601360248201527253616d65206c6564676572206164647265737360681b60448201526064016106dc565b60ca80546001600160a01b0319166001600160a01b0392909216919091179055565b6108fc610f18565b61090682826111a8565b5050565b610912610f18565b8281146109615760405162461bcd60e51b815260206004820152601e60248201527f4f417070436f72653a20496e76616c696420696e707574206c656e677468000060448201526064016106dc565b60005b838110156109bc576109b485858381811061098157610981612589565b90506020020160208101906109969190612099565b8484848181106109a8576109a8612589565b905060200201356111a8565b600101610964565b5050505050565b6109cb610f18565b6109d36111f6565b565b6109dd611256565b6109e6826112fb565b6109068282611303565b60006109fa6113c5565b506000805160206129bf83398151915290565b7ff0c57e16840df040f15088dc2f81fe391c3923bec73e23a9662efc9c229c6a008054600160401b810460ff1615906001600160401b0316600081158015610a525750825b90506000826001600160401b03166001148015610a6e5750303b155b905081158015610a7c575080155b15610a9a5760405163f92ee8a960e01b815260040160405180910390fd5b845467ffffffffffffffff191660011785558315610ac457845460ff60401b1916600160401b1785555b610ace888861140e565b8563ffffffff16600003610b0f5760405162461bcd60e51b815260206004820152600860248201526716995c9bc8195a5960c21b60448201526064016106dc565b60cc80546cff0000000000000000ffffffff191663ffffffff881617600160601b1790558315610b7957845460ff60401b19168555604051600181527fc7f505b2f371ae2175ee4913f4499e1f2633a7b5936321eed1cdaeb6115181d29060200160405180910390a15b5050505050505050565b610b8b610f18565b6109d36000611439565b60cc54600090610bb79064010000000090046001600160401b031660016125b5565b9392505050565b610bc6610f18565b6109d36114aa565b60ca546001600160a01b03163314610c335760405162461bcd60e51b815260206004820152602260248201527f4f6e6c79206c65646765722063616e2063616c6c20746869732066756e63746960448201526137b760f11b60648201526084016106dc565b6000604051806101200160405280610c948460c0013585806101400190610c5a91906125d5565b8080601f0160208091040260200160405190810160405280939291908181526020018383808284376000920191909152506114f392505050565b815260c0840135602082015260e08401356040820152606001610cf8610cbe6101408601866125d5565b8080601f01602080910402602001604051908101604052809392919081815260200183838082843760009201919091525061152f92505050565b8152602001610d0e610cbe6101608601866125d5565b8152602090810190610d229085018561261b565b6001600160801b03168152602001836020016020810190610d43919061261b565b6001600160801b03168152604080850135602083015201610d6c61012085016101008601612638565b6001600160401b0316905290506000610d848261155f565b90506000610d93600183611614565b6001600090815260cb6020527fb3c459fcfa972435363277a54960f9947fdf75faf912b521fbcc6cd1c34ddc335491925090610e0a906001600160801b0380821691600160801b900416610e0360408051600360f01b602082015281516002818303018152602290910190915290565b9190611640565b60cc54909150600090610e259063ffffffff168484846116a8565b60cc54909150600090610b799063ffffffff1685858530611770565b610e49610f18565b60005460405163ca5eb5e160e01b81526001600160a01b0383811660048301529091169063ca5eb5e190602401600060405180830381600087803b158015610e9057600080fd5b505af11580156109bc573d6000803e3d6000fd5b610eac610f18565b6001600160a01b038116610ed657604051631e4fbdf760e01b8152600060048201526024016106dc565b610edf81611439565b50565b6000602082018035906001908390610efa9086612099565b63ffffffff1681526020810191909152604001600020541492915050565b33610f4a7f9016d09d72d40fdae2fd8ceac6b6234c7706214fd39c1cd1e609a0528c199300546001600160a01b031690565b6001600160a01b0316146109d35760405163118cdaa760e01b81523360048201526024016106dc565b63ffffffff811660009081526001602052604081205480610faf5760405163f6ff4fb760e01b815263ffffffff841660048201526024016106dc565b92915050565b60cc54600160601b900460ff161561104d5760cc54610fe69064010000000090046001600160401b031660016125b5565b6001600160401b0316610fff6060890160408a01612638565b6001600160401b03161461104d5760405162461bcd60e51b8152602060048201526015602482015274496e76616c696420696e626f756e64206e6f6e636560581b60448201526064016106dc565b61105d6060880160408901612638565b60cc60046101000a8154816001600160401b0302191690836001600160401b031602179055506000806110908787611863565b909250905060ff8216611166576000818060200190518101906110b39190612655565b60ca5460408051637275235560e11b81528351600482015260208401516024820152908301516044820152606083015160648201526080830151608482015260a08301516001600160801b031660a482015260c08301516001600160401b031660c48201529192506001600160a01b03169063e4ea46aa9060e401600060405180830381600087803b15801561114857600080fd5b505af115801561115c573d6000803e3d6000fd5b505050505061119d565b60405160ff831681527fdd94ce180360df44f5128c6b2d8d1bd1cfef1860da435d7c0f18035a655dd4689060200160405180910390a15b505050505050505050565b63ffffffff8216600081815260016020908152604091829020849055815192835282018390527f238399d427b947898edb290f5ff0f9109849b1c3ba196a42e35f00c50a54b98b9101610825565b6111fe6118ce565b6000805160206129df833981519152805460ff191681557f5db9ee0a495bf2e6ff9c91a7834c1ba4fdd244a5e8aa4e537bd38aeae4b073aa335b6040516001600160a01b03909116815260200160405180910390a150565b306001600160a01b037f00000000000000000000000000000000000000000000000000000000000000001614806112dd57507f00000000000000000000000000000000000000000000000000000000000000006001600160a01b03166112d16000805160206129bf833981519152546001600160a01b031690565b6001600160a01b031614155b156109d35760405163703e46dd60e11b815260040160405180910390fd5b610edf610f18565b816001600160a01b03166352d1902d6040518163ffffffff1660e01b8152600401602060405180830381865afa92505050801561135d575060408051601f3d908101601f1916820190925261135a918101906126e7565b60015b61138557604051634c9c8ce360e01b81526001600160a01b03831660048201526024016106dc565b6000805160206129bf83398151915281146113b657604051632a87526960e21b8152600481018290526024016106dc565b6113c083836118fe565b505050565b306001600160a01b037f000000000000000000000000000000000000000000000000000000000000000016146109d35760405163703e46dd60e11b815260040160405180910390fd5b611416611954565b611420828261199d565b611428611a47565b611430611a4f565b61090681611a5f565b7f9016d09d72d40fdae2fd8ceac6b6234c7706214fd39c1cd1e609a0528c19930080546001600160a01b031981166001600160a01b03848116918217845560405192169182907f8be0079c531659141344cd1fd0a4f28419497f9722a3daafe3b4186f6b6457e090600090a3505050565b6114b2611a70565b6000805160206129df833981519152805460ff191660011781557f62e78cea01bee320cd4e420270b5ea74000d11b0c9f74754ebdbfc544b05a25833611238565b6000826114ff8361152f565b60408051602081019390935282015260600160405160208183030381529060405280519060200120905092915050565b6000816040516020016115429190612700565b604051602081830303815290604052805190602001209050919050565b6060816000015182602001518360400151846060015185608001518660a001518760c001518860e001518961010001516040516020016115fe99989796959493929190988952602089019790975260408801959095526060870193909352608086019190915260c090811b6001600160c01b031990811660a087015291811b821660a886015291821b811660b085015291811b90911660b88301520190565b6040516020818303038152906040529050919050565b6060828260405160200161162992919061271c565b604051602081830303815290604052905092915050565b6060836003611650826000611aa1565b61ffff161461168457611664816000611aa1565b604051633a51740d60e01b815261ffff90911660048201526024016106dc565b60006116908585611afe565b905061169e86600183611b65565b9695505050505050565b60408051808201909152600080825260208201526000546040805160a0810190915263ffffffff871681526001600160a01b039091169063ddc28c5890602081016116f289610f73565b8152602001878152602001868152602001851515815250306040518363ffffffff1660e01b815260040161172792919061274b565b6040805180830381865afa158015611743573d6000803e3d6000fd5b505050506040513d601f19601f820116820180604052508101906117679190612812565b95945050505050565b611778611fca565b60006117878460000151611bd0565b6020850151909150156117a1576117a18460200151611c04565b6000546040805160a0810190915263ffffffff891681526001600160a01b0390911690632637a450908390602081016117d98c610f73565b81526020018a815260200189815260200160008960200151111515815250866040518463ffffffff1660e01b815260040161181592919061274b565b60806040518083038185885af1158015611833573d6000803e3d6000fd5b50505050506040513d601f19601f82011682018060405250810190611858919061282e565b979650505050505050565b600060606118746001838587612895565b61187d916128bf565b60f81c915061188f8360018187612895565b8080601f016020809104026020016040519081016040528093929190818152602001838380828437600092019190915250949792965091945050505050565b6000805160206129df8339815191525460ff166109d357604051638dfc202b60e01b815260040160405180910390fd5b61190782611cc1565b6040516001600160a01b038316907fbc7cd75a20ee27fd9adebab32041f755214dbc6bffa90cc0225b39da2e5c2d3b90600090a280511561194c576113c08282611d26565b610906611d93565b7ff0c57e16840df040f15088dc2f81fe391c3923bec73e23a9662efc9c229c6a0054600160401b900460ff166109d357604051631afcd79f60e31b815260040160405180910390fd5b6119a5611954565b600080546001600160a01b0319166001600160a01b038481169190911790915581166119e457604051632d618d8160e21b815260040160405180910390fd5b60005460405163ca5eb5e160e01b81526001600160a01b0383811660048301529091169063ca5eb5e190602401600060405180830381600087803b158015611a2b57600080fd5b505af1158015611a3f573d6000803e3d6000fd5b505050505050565b6109d3611954565b611a57611954565b6109d3611db2565b611a67611954565b610edf81611dd3565b6000805160206129df8339815191525460ff16156109d35760405163d93c066560e01b815260040160405180910390fd5b6000611aae8260026128ef565b83511015611af55760405162461bcd60e51b8152602060048201526014602482015273746f55696e7431365f6f75744f66426f756e647360601b60448201526064016106dc565b50016002015190565b60606001600160801b03821615611b4657604080516001600160801b0319608086811b8216602084015285901b16603082015201604051602081830303815290604052610bb7565b6040516001600160801b0319608085901b166020820152603001611629565b6060836003611b75826000611aa1565b61ffff1614611b8957611664816000611aa1565b846001611b968551611ddb565b611ba1906001612902565b8686604051602001611bb795949392919061291d565b6040516020818303038152906040529150509392505050565b60008134108015611be057508147105b15611c00576040516304fb820960e51b81523460048201526024016106dc565b5090565b60008060009054906101000a90046001600160a01b03166001600160a01b031663e4fe1d946040518163ffffffff1660e01b8152600401602060405180830381865afa158015611c58573d6000803e3d6000fd5b505050506040513d601f19601f82011682018060405250810190611c7c9190612984565b90506001600160a01b038116611ca5576040516329b99a9560e11b815260040160405180910390fd5b600054610906906001600160a01b038381169133911685611e0a565b806001600160a01b03163b600003611cf757604051634c9c8ce360e01b81526001600160a01b03821660048201526024016106dc565b6000805160206129bf83398151915280546001600160a01b0319166001600160a01b0392909216919091179055565b6060600080846001600160a01b031684604051611d439190612700565b600060405180830381855af49150503d8060008114611d7e576040519150601f19603f3d011682016040523d82523d6000602084013e611d83565b606091505b5091509150611767858383611e6a565b34156109d35760405163b398979f60e01b815260040160405180910390fd5b611dba611954565b6000805160206129df833981519152805460ff19169055565b610eac611954565b600061ffff821115611c00576040516306dfcc6560e41b815260106004820152602481018390526044016106dc565b604080516001600160a01b0385811660248301528416604482015260648082018490528251808303909101815260849091019091526020810180516001600160e01b03166323b872dd60e01b179052611e64908590611ec6565b50505050565b606082611e7f57611e7a82611f29565b610bb7565b8151158015611e9657506001600160a01b0384163b155b15611ebf57604051639996b31560e01b81526001600160a01b03851660048201526024016106dc565b5092915050565b6000611edb6001600160a01b03841683611f52565b90508051600014158015611f00575080806020019051810190611efe91906129a1565b155b156113c057604051635274afe760e01b81526001600160a01b03841660048201526024016106dc565b805115611f395780518082602001fd5b604051630a12f52160e11b815260040160405180910390fd5b6060610bb78383600084600080856001600160a01b03168486604051611f789190612700565b60006040518083038185875af1925050503d8060008114611fb5576040519150601f19603f3d011682016040523d82523d6000602084013e611fba565b606091505b509150915061169e868383611e6a565b60405180606001604052806000801916815260200160006001600160401b0316815260200161200c604051806040016040528060008152602001600081525090565b905290565b803560ff8116811461202257600080fd5b919050565b6001600160801b0381168114610edf57600080fd5b60008060006060848603121561205157600080fd5b61205a84612011565b9250602084013561206a81612027565b9150604084013561207a81612027565b809150509250925092565b803563ffffffff8116811461202257600080fd5b6000602082840312156120ab57600080fd5b610bb782612085565b6000606082840312156120c657600080fd5b50919050565b60008083601f8401126120de57600080fd5b5081356001600160401b038111156120f557600080fd5b60208301915083602082850101111561210d57600080fd5b9250929050565b6001600160a01b0381168114610edf57600080fd5b600080600080600080600060e0888a03121561214457600080fd5b61214e89896120b4565b96506060880135955060808801356001600160401b038082111561217157600080fd5b61217d8b838c016120cc565b909750955060a08a0135915061219282612114565b90935060c089013590808211156121a857600080fd5b506121b58a828b016120cc565b989b979a50959850939692959293505050565b8015158114610edf57600080fd5b6001600160401b0381168114610edf57600080fd5b600080604083850312156121fe57600080fd5b8235612209816121c8565b91506020830135612219816121d6565b809150509250929050565b60006020828403121561223657600080fd5b8135610bb781612114565b6000806040838503121561225457600080fd5b61225d83612085565b946020939093013593505050565b60008083601f84011261227d57600080fd5b5081356001600160401b0381111561229457600080fd5b6020830191508360208260051b850101111561210d57600080fd5b600080600080604085870312156122c557600080fd5b84356001600160401b03808211156122dc57600080fd5b6122e88883890161226b565b9096509450602087013591508082111561230157600080fd5b5061230e8782880161226b565b95989497509550505050565b634e487b7160e01b600052604160045260246000fd5b604051601f8201601f191681016001600160401b03811182821017156123585761235861231a565b604052919050565b6000806040838503121561237357600080fd5b823561237e81612114565b91506020838101356001600160401b038082111561239b57600080fd5b818601915086601f8301126123af57600080fd5b8135818111156123c1576123c161231a565b6123d3601f8201601f19168501612330565b915080825287848285010111156123e957600080fd5b80848401858401376000848284010152508093505050509250929050565b60008060006060848603121561241c57600080fd5b833561242781612114565b9250602084013561243781612114565b915061244560408501612085565b90509250925092565b60008060008060a0858703121561246457600080fd5b61246e86866120b4565b935060608501356001600160401b0381111561248957600080fd5b612495878288016120cc565b90945092505060808501356124a981612114565b939692955090935050565b6000602082840312156124c657600080fd5b81356001600160401b038111156124dc57600080fd5b82016101808185031215610bb757600080fd5b60005b8381101561250a5781810151838201526020016124f2565b50506000910152565b6000815180845261252b8160208601602086016124ef565b601f01601f19169290920160200192915050565b602081526000610bb76020830184612513565b60006020828403121561256457600080fd5b610bb782612011565b60006060828403121561257f57600080fd5b610bb783836120b4565b634e487b7160e01b600052603260045260246000fd5b634e487b7160e01b600052601160045260246000fd5b6001600160401b03818116838216019080821115611ebf57611ebf61259f565b6000808335601e198436030181126125ec57600080fd5b8301803591506001600160401b0382111561260657600080fd5b60200191503681900382131561210d57600080fd5b60006020828403121561262d57600080fd5b8135610bb781612027565b60006020828403121561264a57600080fd5b8135610bb7816121d6565b600060e0828403121561266757600080fd5b60405160e081018181106001600160401b03821117156126895761268961231a565b8060405250825181526020830151602082015260408301516040820152606083015160608201526080830151608082015260a08301516126c881612027565b60a082015260c08301516126db816121d6565b60c08201529392505050565b6000602082840312156126f957600080fd5b5051919050565b600082516127128184602087016124ef565b9190910192915050565b60ff60f81b8360f81b1681526000825161273d8160018501602087016124ef565b919091016001019392505050565b6040815263ffffffff8351166040820152602083015160608201526000604084015160a0608084015261278160e0840182612513565b90506060850151603f198483030160a085015261279e8282612513565b60809690960151151560c08501525050506001600160a01b039190911660209091015290565b6000604082840312156127d657600080fd5b604051604081018181106001600160401b03821117156127f8576127f861231a565b604052825181526020928301519281019290925250919050565b60006040828403121561282457600080fd5b610bb783836127c4565b60006080828403121561284057600080fd5b604051606081018181106001600160401b03821117156128625761286261231a565b604052825181526020830151612877816121d6565b602082015261288984604085016127c4565b60408201529392505050565b600080858511156128a557600080fd5b838611156128b257600080fd5b5050820193919092039150565b6001600160f81b031981358181169160018510156128e75780818660010360031b1b83161692505b505092915050565b80820180821115610faf57610faf61259f565b61ffff818116838216019080821115611ebf57611ebf61259f565b6000865161292f818460208b016124ef565b6001600160f81b031960f888811b82169285019283526001600160f01b031960f089901b16600184015286901b16600382015283516129758160048401602088016124ef565b01600401979650505050505050565b60006020828403121561299657600080fd5b8151610bb781612114565b6000602082840312156129b357600080fd5b8151610bb7816121c856fe360894a13ba1a3210667c828492db98dca3e2076cc3735a920a3ca505d382bbccd5ed15c6e187e77e9aee88184c21f4f2182ab5827cb3b7e07fbedcd63f03300a2646970667358221220f0a63c42da24f1c11a66b3837edb114508362d602d84aa3e05a8b6c3c81e6fb164736f6c63430008160033",
  "devdoc": {
    "errors": {
      "AddressEmptyCode(address)": [
        {
          "details": "There's no code at `target` (it is not a contract)."
        }
      ],
      "AddressInsufficientBalance(address)": [
        {
          "details": "The ETH balance of the account is not enough to perform the operation."
        }
      ],
      "ERC1967InvalidImplementation(address)": [
        {
          "details": "The `implementation` of the proxy is invalid."
        }
      ],
      "ERC1967NonPayable()": [
        {
          "details": "An upgrade function sees `msg.value > 0` that may be lost."
        }
      ],
      "EnforcedPause()": [
        {
          "details": "The operation failed because the contract is paused."
        }
      ],
      "ExpectedPause()": [
        {
          "details": "The operation failed because the contract is not paused."
        }
      ],
      "FailedInnerCall()": [
        {
          "details": "A call to an address target failed. The target may have reverted."
        }
      ],
      "InvalidInitialization()": [
        {
          "details": "The contract is already initialized."
        }
      ],
      "NotInitializing()": [
        {
          "details": "The contract is not initializing."
        }
      ],
      "OwnableInvalidOwner(address)": [
        {
          "details": "The owner is not a valid owner account. (eg. `address(0)`)"
        }
      ],
      "OwnableUnauthorizedAccount(address)": [
        {
          "details": "The caller account is not authorized to perform an operation."
        }
      ],
      "SafeCastOverflowedUintDowncast(uint8,uint256)": [
        {
          "details": "Value doesn't fit in an uint of `bits` size."
        }
      ],
      "SafeERC20FailedOperation(address)": [
        {
          "details": "An operation with an ERC20 token failed."
        }
      ],
      "UUPSUnauthorizedCallContext()": [
        {
          "details": "The call is from an unauthorized context."
        }
      ],
      "UUPSUnsupportedProxiableUUID(bytes32)": [
        {
          "details": "The storage `slot` is unsupported as a UUID."
        }
      ]
    },
    "events": {
      "Initialized(uint64)": {
        "details": "Triggered when the contract has been initialized or reinitialized."
      },
      "Paused(address)": {
        "details": "Emitted when the pause is triggered by `account`."
      },
      "Unpaused(address)": {
        "details": "Emitted when the pause is lifted by `account`."
      },
      "Upgraded(address)": {
        "details": "Emitted when the implementation is upgraded."
      }
    },
    "kind": "dev",
    "methods": {
      "allowInitializePath((uint32,bytes32,uint64))": {
        "details": "This indicates to the endpoint that the OApp has enabled msgs for this particular path to be received.This defaults to assuming if a peer has been set, its initialized. Can be overridden by the OApp if there is other logic to determine this.",
        "params": {
          "origin": "The origin information containing the source endpoint and sender address."
        },
        "returns": {
          "_0": "Whether the path has been initialized."
        }
      },
      "constructor": {
        "details": "Disable the initializer on the implementation contract"
      },
      "initialize(address,address,uint32)": {
        "details": "Initialize the OrderOFT contract and set the ordered nonce flag",
        "params": {
          "_delegate": "The delegate address of this OApp on the endpoint",
          "_lzEndpoint": "The LayerZero endpoint address"
        }
      },
      "isComposeMsgSender((uint32,bytes32,uint64),bytes,address)": {
        "details": "_origin The origin information containing the source endpoint and sender address.  - srcEid: The source chain endpoint ID.  - sender: The sender address on the src chain.  - nonce: The nonce of the message._message The lzReceive payload.Applications can optionally choose to implement separate composeMsg senders that are NOT the bridging layer.The default sender IS the OAppReceiver implementer.",
        "params": {
          "_sender": "The sender address."
        },
        "returns": {
          "_0": "isSender Is a valid sender."
        }
      },
      "lzReceive((uint32,bytes32,uint64),bytes32,bytes,address,bytes)": {
        "details": "Entry point for receiving messages or packets from the endpoint.Entry point for receiving msg/packet from the LayerZero endpoint.",
        "params": {
          "_executor": "The address of the executor for the received message.",
          "_extraData": "Additional arbitrary data provided by the corresponding executor.",
          "_guid": "The unique identifier for the received LayerZero message.",
          "_message": "The payload of the received message.",
          "_origin": "The origin information containing the source endpoint and sender address.  - srcEid: The source chain endpoint ID.  - sender: The sender address on the src chain.  - nonce: The nonce of the message."
        }
      },
      "nextNonce(uint32,bytes32)": {
        "details": "_srcEid The source endpoint ID._sender The sender address.The path nonce starts from 1. If 0 is returned it means that there is NO nonce ordered enforcement.Is required by the off-chain executor to determine the OApp expects msg execution is ordered.This is also enforced by the OApp.By default this is NOT enabled. ie. nextNonce is hardcoded to return 0.",
        "returns": {
          "nonce": "The next nonce."
        }
      },
      "oAppVersion()": {
        "returns": {
          "receiverVersion": "The version of the OAppReceiver.sol implementation.",
          "senderVersion": "The version of the OAppSender.sol implementation."
        }
      },
      "owner()": {
        "details": "Returns the address of the current owner."
      },
      "paused()": {
        "details": "Returns true if the contract is paused, and false otherwise."
      },
      "proxiableUUID()": {
        "details": "Implementation of the ERC1822 {proxiableUUID} function. This returns the storage slot used by the implementation. It is used to validate the implementation's compatibility when performing an upgrade. IMPORTANT: A proxy pointing at a proxiable contract should not be considered proxiable itself, because this risks bricking a proxy that upgrades to it, by delegating to itself until out of gas. Thus it is critical that this function revert if invoked through a proxy. This is guaranteed by the `notDelegated` modifier."
      },
      "renounceOwnership()": {
        "details": "Leaves the contract without owner. It will not be possible to call `onlyOwner` functions. Can only be called by the current owner. NOTE: Renouncing ownership will leave the contract without an owner, thereby disabling any functionality that is only available to the owner."
      },
      "setDelegate(address)": {
        "details": "Only the owner/admin of the OApp can call this function.Provides the ability for a delegate to set configs, on behalf of the OApp, directly on the Endpoint contract.",
        "params": {
          "_delegate": "The address of the delegate to be set."
        }
      },
      "setPeer(uint32,bytes32)": {
        "details": "Only the owner/admin of the OApp can call this function.Indicates that the peer is trusted to send LayerZero messages to this OApp.Set this to bytes32(0) to remove the peer address.Peer is a bytes32 to accommodate non-evm chains.",
        "params": {
          "_eid": "The endpoint ID.",
          "_peer": "The address of the peer to be associated with the corresponding endpoint."
        }
      },
      "transferOwnership(address)": {
        "details": "Transfers ownership of the contract to a new account (`newOwner`). Can only be called by the current owner."
      },
      "upgradeToAndCall(address,bytes)": {
        "custom:oz-upgrades-unsafe-allow-reachable": "delegatecall",
        "details": "Upgrade the implementation of the proxy to `newImplementation`, and subsequently execute the function call encoded in `data`. Calls {_authorizeUpgrade}. Emits an {Upgraded} event."
      }
    },
    "version": 1
  },
  "userdoc": {
    "kind": "user",
    "methods": {
      "allowInitializePath((uint32,bytes32,uint64))": {
        "notice": "Checks if the path initialization is allowed based on the provided origin."
      },
      "endpoint()": {
        "notice": "Retrieves the LayerZero endpoint associated with the OApp."
      },
      "isComposeMsgSender((uint32,bytes32,uint64),bytes,address)": {
        "notice": "Indicates whether an address is an approved composeMsg sender to the Endpoint."
      },
      "nextNonce(uint32,bytes32)": {
        "notice": "Retrieves the next nonce for a given source endpoint and sender address."
      },
      "oAppVersion()": {
        "notice": "Retrieves the OApp version information."
      },
      "peers(uint32)": {
        "notice": "Retrieves the peer (OApp) associated with a corresponding endpoint."
      },
      "setDelegate(address)": {
        "notice": "Sets the delegate address for the OApp."
      },
      "setPeer(uint32,bytes32)": {
        "notice": "Sets the peer address (OApp instance) for a corresponding endpoint."
      }
    },
    "version": 1
  },
  "storageLayout": {
    "storage": [
      {
        "astId": 5980,
        "contract": "contracts/SolConnector.sol:SolConnector",
        "label": "endpoint",
        "offset": 0,
        "slot": "0",
        "type": "t_contract(ILayerZeroEndpointV2)677"
      },
      {
        "astId": 5984,
        "contract": "contracts/SolConnector.sol:SolConnector",
        "label": "peers",
        "offset": 0,
        "slot": "1",
        "type": "t_mapping(t_uint32,t_bytes32)"
      },
      {
        "astId": 5988,
        "contract": "contracts/SolConnector.sol:SolConnector",
        "label": "__gap",
        "offset": 0,
        "slot": "2",
        "type": "t_array(t_uint256)50_storage"
      },
      {
        "astId": 6331,
        "contract": "contracts/SolConnector.sol:SolConnector",
        "label": "__gap",
        "offset": 0,
        "slot": "52",
        "type": "t_array(t_uint256)50_storage"
      },
      {
        "astId": 6167,
        "contract": "contracts/SolConnector.sol:SolConnector",
        "label": "__gap",
        "offset": 0,
        "slot": "102",
        "type": "t_array(t_uint256)50_storage"
      },
      {
        "astId": 6526,
        "contract": "contracts/SolConnector.sol:SolConnector",
        "label": "__gap",
        "offset": 0,
        "slot": "152",
        "type": "t_array(t_uint256)50_storage"
      },
      {
        "astId": 5493,
        "contract": "contracts/SolConnector.sol:SolConnector",
        "label": "ledger",
        "offset": 0,
        "slot": "202",
        "type": "t_contract(ILedger)5952"
      },
      {
        "astId": 5498,
        "contract": "contracts/SolConnector.sol:SolConnector",
        "label": "msgOptions",
        "offset": 0,
        "slot": "203",
        "type": "t_mapping(t_uint8,t_struct(LzOptions)5486_storage)"
      },
      {
        "astId": 5500,
        "contract": "contracts/SolConnector.sol:SolConnector",
        "label": "solEid",
        "offset": 0,
        "slot": "204",
        "type": "t_uint32"
      },
      {
        "astId": 5502,
        "contract": "contracts/SolConnector.sol:SolConnector",
        "label": "inboundNonce",
        "offset": 4,
        "slot": "204",
        "type": "t_uint64"
      },
      {
        "astId": 5504,
        "contract": "contracts/SolConnector.sol:SolConnector",
        "label": "orderDelivery",
        "offset": 12,
        "slot": "204",
        "type": "t_bool"
      }
    ],
    "types": {
      "t_array(t_uint256)50_storage": {
        "base": "t_uint256",
        "encoding": "inplace",
        "label": "uint256[50]",
        "numberOfBytes": "1600"
      },
      "t_bool": {
        "encoding": "inplace",
        "label": "bool",
        "numberOfBytes": "1"
      },
      "t_bytes32": {
        "encoding": "inplace",
        "label": "bytes32",
        "numberOfBytes": "32"
      },
      "t_contract(ILayerZeroEndpointV2)677": {
        "encoding": "inplace",
        "label": "contract ILayerZeroEndpointV2",
        "numberOfBytes": "20"
      },
      "t_contract(ILedger)5952": {
        "encoding": "inplace",
        "label": "contract ILedger",
        "numberOfBytes": "20"
      },
      "t_mapping(t_uint32,t_bytes32)": {
        "encoding": "mapping",
        "key": "t_uint32",
        "label": "mapping(uint32 => bytes32)",
        "numberOfBytes": "32",
        "value": "t_bytes32"
      },
      "t_mapping(t_uint8,t_struct(LzOptions)5486_storage)": {
        "encoding": "mapping",
        "key": "t_uint8",
        "label": "mapping(uint8 => struct LzOptions)",
        "numberOfBytes": "32",
        "value": "t_struct(LzOptions)5486_storage"
      },
      "t_struct(LzOptions)5486_storage": {
        "encoding": "inplace",
        "label": "struct LzOptions",
        "members": [
          {
            "astId": 5483,
            "contract": "contracts/SolConnector.sol:SolConnector",
            "label": "gas",
            "offset": 0,
            "slot": "0",
            "type": "t_uint128"
          },
          {
            "astId": 5485,
            "contract": "contracts/SolConnector.sol:SolConnector",
            "label": "value",
            "offset": 16,
            "slot": "0",
            "type": "t_uint128"
          }
        ],
        "numberOfBytes": "32"
      },
      "t_uint128": {
        "encoding": "inplace",
        "label": "uint128",
        "numberOfBytes": "16"
      },
      "t_uint256": {
        "encoding": "inplace",
        "label": "uint256",
        "numberOfBytes": "32"
      },
      "t_uint32": {
        "encoding": "inplace",
        "label": "uint32",
        "numberOfBytes": "4"
      },
      "t_uint64": {
        "encoding": "inplace",
        "label": "uint64",
        "numberOfBytes": "8"
      },
      "t_uint8": {
        "encoding": "inplace",
        "label": "uint8",
        "numberOfBytes": "1"
      }
    }
  }
}